:10000000A02B0020A91E0000A51E0000A51E0000B8
:1000100000000000000000000000000000000000E0
:10002000000000000000000000000000A51E00000D
:100030000000000000000000A51E0000A51E00003A
:10004000A51E0000A51E0000A51E0000A51E0000A4
:1000500085040000A51E0000A51E0000A51E0000CE
:10006000A51E000075090000850900009509000023
:10007000A5090000B5090000C5090000A51E000083
:10008000A51E0000A51E0000751E0000851E0000B4
:10009000951E0000A51E0000A51E0000A51E000064
:1000A000A51E0000A51E0000A51E0000A51E000044
:1000B00008B5064B064803331B1A062B00D808BDAB
:1000C000044B002BFBD09847F9E7C04604C9000059
:1000D00004C900000000000008B50748074B1B1AC0
:1000E0009B10DA0FD318591000D108BD044A002A1A
:1000F000FBD09047F9E7C04604C9000004C90000DE
:100100000000000010B5074C2378002B09D1FFF741
:10011000CFFF054B002B02D0044800E000BF0123B5
:10012000237010BD780000200000000004C900000A
:1001300008B5094B002B03D00848094900E000BF6F
:1001400008480368002B03D0074B002B00D09847CA
:10015000FFF7C2FF08BDC0460000000004C9000050
:100160007C00002004C900000000000010B5002041
:10017000084B9847084CFA218900A047074B1860A4
:10018000FA218900A047064B18600522054B1A602A
:1001900010BDC0465118000075A2000004000020E8
:1001A0000000002010E000E030B5084B1C68084A51
:1001B00000258021490206E0002C04D0546095609F
:1001C00013680B42FCD00138F6D230BD000000208D
:1001D00010E000E00C4B1B68002B10D1EFF31083F4
:1001E000002B09D172B6BFF35F8F0022074B1A7044
:1001F0000122074B1A7002E00022054B1A70024BD5
:100200001A6801321A60704794000020080000202C
:1002100098000020084B1A68013A1A601B68002BEE
:1002200009D1064B1B78002B05D00122044B1A7014
:10023000BFF35F8F62B670479400002098000020E3
:1002400008000020F0B5474680B482B001AC01261A
:1002500066700027A77026701320211C274DA84721
:10026000274A904680231B039361277066701C20E9
:10027000211CA8476670A77026705220211CA84731
:100280003E20211CA8473F20211CA8472F20211CCD
:10029000A8471420211CA8478022D202194B9A613A
:1002A000803B8022D2059A61802212069A618022C8
:1002B00012029A6180235B034246936127705320A8
:1002C000211CA847104B196A802292030A431A6224
:1002D00004220E4B1A806B469E70DF7005236A461F
:1002E0001370567030206946094CA047312069468A
:1002F000A04702B004BC9046F0BDC046F104000027
:100300000044004100450041000400400054004208
:10031000451A0000054B1A68D2B202210A431A702E
:100320001A1C13681904FCD47047C046001800401A
:1003300000B583B0124B996940220A439A6101A922
:1003400000230B7005200F4B984705200E4B984754
:100350000E4B1A68D2B201210A431A701A1C136894
:100360001904FCD40A4B191C4031002204C38B42EF
:10037000FCD11022074B1A60074B984703B000BD11
:100380000004004065190000D51800000018004066
:10039000AC08002000E100E015030000F0B583B0D8
:1003A000051C0C1C01A900234B70CB7063680B70FB
:1003B000237A8B702078154B984700231F2D00D887
:1003C000134B072129408900E07AA27A002A01D044
:1003D00008221043EA0892009A18966988400F276D
:1003E0008F40BE43311C01439161627A002A06D0DE
:1003F0005A690121A9400D1C15435D6104E05A6949
:100400000121A9408A435A6103B0F0BD451A00009A
:10041000001800401723002A0FD18B00084A9A5871
:10042000002A04D1191C064BC850002305E01D23E7
:10043000121A501E824152421340181C7047C04687
:10044000AC0800201723002907D100231F2800D85B
:10045000034B01228240DA600023181C7047C0461B
:10046000001800401723002907D100231F2800D8B7
:10047000034B012282409A600023181C7047C0463B
:100480000018004070B50022164B1A7000231F267A
:10049000154D144C1F2B10D919E0144900E0002110
:1004A0000A619B005B59002B00D0984723780133E9
:1004B000DBB223700F2B14D8ECE7321C1A40012159
:1004C00091400A1C094909691142E6D1EEE7321C44
:1004D0001A40012191400A1C002109691142DED114
:1004E000E4E770BDEC080020AC08002000180040D4
:1004F00000B583B001AB80221A700A785A704A782E
:100500009A708A78DA70191C014B984703B000BDC5
:10051000451A000010B5031C4908402099420CD32D
:100520000024C91A601C80B28B4201D8041CF8E771
:100530004020FF2C01D81480002010BD00000000D6
:10054000F0B55F4656464D464446F0B487B0061CAB
:100550000D1C049210AA1078321C424340248A4297
:1005600000D9B3E0002B4BD10021321C5E4CA047D8
:1005700083462E1C002700200021002200233F2458
:10058000A4460125A846029003916146203903D470
:1005900040468840814605E0202165464C1B404688
:1005A000E040814641466446A1408A46101C191C21
:1005B00080185941021C0B1C5D464C46254202D056
:1005C000424602430B1C9F420CD801D1964209D8E7
:1005D000921BBB415046029D28434946039C214340
:1005E000029003916546013DAC46CED20298039934
:1005F0003C4B3B4A121A8B41120C1B041A4362E01B
:100600000022012B5FD14F0FB946CD00AB46002130
:10061000321C0023344CA047061C0F1C002301256C
:10062000029603979A465046C0B20590002188462C
:10063000002200233F24271C203F03D42E1CBE4051
:10064000019604E02020071B291CF94001912E1C73
:10065000A6400096101C191C80185941021C0B1C46
:100660005F463740BC46019E4F463E4067463E438C
:1006700002D02A1C02430B1C039898420BD802D1CB
:100680000299914207D8029E039F921BBB414746A5
:1006900000980743B846013CCDD2414652468B1ADA
:1006A000DB08124CA34208D9059A0132D2B2059256
:1006B0000126B2445746082FB5D140240598082892
:1006C00004D042031A43049C22800024201C07B05B
:1006D0003CBC90469946A246AB46F0BDC046C046DB
:1006E0000000000001000000D5A30000FF1F000073
:1006F00010B582B0041C0F4B1B78002B01D00029D1
:100700000DD001A90C7013200B4B984713200B4BF5
:100710009847084B5C7001221A70002007E0054BD7
:100720005A781D20141B621E94416442204002B07E
:1007300010BDC0469C00002065190000D5180000BF
:10074000444B984233D006D8434B98420DD0434B8C
:1007500098421BD06FE0424B98424AD0414B98429E
:1007600058D0414B984266D132E0012965D000292A
:1007700004D0022906D0032906D001E03B4867E0F7
:10078000002065E03A4863E03A4861E0012956D02C
:10079000002904D0022906D0032906D001E03648FA
:1007A00056E0002054E0354852E0354850E0012939
:1007B00047D0002904D0022906D0032906D001E041
:1007C000304845E0002043E02F4841E02F483FE01B
:1007D000012938D0002904D0022906D0032906D0E7
:1007E00001E02B4834E0002032E02A4830E02A487B
:1007F0002EE0012929D0002904D0022906D003299E
:1008000006D001E0254823E0002021E024481FE035
:1008100024481DE001291AD0002904D0022906D05D
:10082000032906D001E0204812E0002010E01F4814
:100830000EE01F480CE000200AE01E4808E01E48B9
:1008400006E01E4804E01E4802E01E4800E01E4884
:100850007047C0460010004200080042000C0042F1
:1008600000180042001C0042001400420200080070
:1008700002000A0002000B00020010000200120039
:10088000020013000300080003000A0003000B002D
:1008900003001000030012000300130005005300C2
:1008A00005003E000500520003003E000300180052
:1008B00003001900020009000200110003000900F2
:1008C0000300110005003F0003003F0070B586B033
:1008D0000C4A6B4670CA70C332CA32C3009E86424D
:1008E00006D001239A0069465258824203D100E0A3
:1008F0000023D8B203E00133062BF3D1002006B069
:1009000070BDC0463CC000007047C046F0B50A4B01
:100910001B78002B0CD1094F094E0A4D0024DE51E3
:100920005A1914600433182BF9D10122024B1A70A2
:100930008000024BC150F0BDA0000020A4000020A8
:1009400009090000F008002010B582B0041C6846B8
:1009500005490622054B9847201C054B98476B46D6
:10096000185602B010BDC04654C0000061A400007B
:10097000CD08000008B5024B1B680020984708BD51
:10098000A400002008B5024B5B680120984708BD11
:10099000A400002008B5024B9B680220984708BDC0
:1009A000A400002008B5024BDB680320984708BD6F
:1009B000A400002008B5024B1B690420984708BD1D
:1009C000A400002008B5024B5B690520984708BDCC
:1009D000A4000020F0B55F4656464D464446F0B4AC
:1009E00089B0071C0D1C141C39600B68980700D4D3
:1009F0008DE0916A0391D26A0492236B0593606B38
:100A000006900026B1461F229046F1B2B30003AA19
:100A10009858002802D1281C8D4B9847411C29D09A
:100A20000204120C9446030CDAB24946180603D4A9
:100A30005109C901874BC918404610400B18403373
:100A40001B789A4680239B465346DB070CD540080B
:100A5000091830310B78DBB2D00702D51B099B4651
:100A600002E00F2213409B46DC4503D000233B608D
:100A70001C20E5E00136042EC7D11320764B9847A1
:100A8000011C23780026012B11D1A06902AA734B07
:100A90009847031C1720002B00D0D1E0EB68DBB295
:100AA00002AA12781C209A4200D0C9E00C26A26843
:100AB00061680A43E3681A433243237C617C00295E
:100AC00001D080210A43A17C002902D08021890223
:100AD0000B43E17C002902D0802189000B43217D5A
:100AE000002902D0802189010B432968022002439A
:100AF0008A4208D16A689A4205D123787B71237CA7
:100B0000BB7100209CE000233B601C2098E00B6838
:100B10000520D90700D593E0281C514B9847514B2D
:100B2000196A821C01269640321C0A431A6207A9E0
:100B30002426A35D0B701430C0B280464A4B984700
:100B400040464A4B9847A05D0021494B984723787F
:100B5000012B03D12A680C2313432B603E6802ABA0
:100B600080221A7000225A7001219970DA70A26AEC
:100B70000392E36A0493206B0590616B0691002554
:100B8000E9B2AB0003AA9858002802D1301C304AC1
:100B90009047431C06D069460872000CC0B202A9F7
:100BA000344A90470135042DEAD123787B71237CA8
:100BB000BB71A37CFB71237D3B7200226B46DA8004
:100BC0002378012B14D13868254B98471430C0B2D4
:100BD000214B9847011CA0696A4606321F4B984773
:100BE000031C1720002B2BD16B4606331B78337365
:100BF000A26863681A43E0680243237C617C002991
:100C000003D11D490968880301D580210A43A17CCD
:100C1000002902D0802189020B43E17C002902D007
:100C2000802189000B43217D002902D08021890188
:100C30000B4331680A4332607268134373600020CB
:100C400009B03CBC90469946A246AB46F0BDC046B2
:100C50004107000000440041811900001505000013
:100C6000CD0800000004004065190000D518000000
:100C7000F1060000451A00000020004110B544793B
:100C80001523012C6DD1047A0023002C69D1002A90
:100C900058D04B78002B45D003689B69DA070FD4F6
:100CA0000B78D9090022002903D15A09D2012E4C10
:100CB00012191F210B40012199409161052350E039
:100CC0000B78DC090022002C03D15A09D201264CF2
:100CD00012191F24234001249C4054618978036821
:100CE0009A69D40700D59962C2790023002A38D1C5
:100CF0000268042193690B42FCD0916900234C07E0
:100D00002FD59369590304D593691B0C04210B4318
:100D100053838379012B02D1936A002321E0936AE4
:100D200000231EE00B78D9090022002903D15A09BB
:100D3000D2010D4C12191F210B4001219940516124
:100D400000230EE00B78D9090022002903D15A09AB
:100D5000D201054952181F210B4001219940916190
:100D60000023181C10BDC04600440041F0B55F468A
:100D700056464D464446F0B491B0051C0C1C161C5A
:100D80002960081CAD4B9847021C23680520D90731
:100D900000D54BE123681C209F0700D546E1A84BF6
:100DA000186A911C01278F40391C014319620FA951
:100DB0002D27F35D0B701432D2B29046101CA14B5C
:100DC00098474046A04B9847F05D00219F4B9847BD
:100DD000F37A6B712423F35CAB712523F35CEB7125
:100DE000F37E2B72337F6B7229688846081C934B05
:100DF0009847143000226B46DA84328A02928023AC
:100E0000DB019A4221D08023DB019A4204D880235F
:100E10009B019A4211D008E0C023DB01029F9F4250
:100E20000FD080231B029F4203D010270697002774
:100E30000EE00327069700270AE0102706970127F0
:100E400006E008270697012702E0082706970027F3
:100E500031680391F268914673690493317E8A4642
:100E60002623F35C9B467368002B13D08022520527
:100E700093422ED12723F35C002B2ED1376AC0B2C8
:100E8000734B9847011C381C6A462632714B9847B1
:100E9000031C1FE02723F35C002B0AD0069A009264
:100EA000306AB16A6A4626323B1C6B4FB847031C56
:100EB00010E0316A0791C0B2654B9847011C069A51
:100EC000009207986A4626323B1C634FB847031CC2
:100ED00000E00023181E00D0A8E0737E002B02D093
:100EE000B37E41468B732A68029FD369002BFCD1E5
:100EF00002976B4626331B88424693814B46039FDD
:100F00003B43049F3B4371680B43029F1F43524680
:100F100013021F4359464B071F432723F35C002B43
:100F200001D104231F43717E8902337F5B02194381
:100F3000F27AB37A13431943737F1B0219432423B4
:100F4000F35C5B0419432523F35C1B0419433389C9
:100F5000FF2B0BD0F27E002A03D0A022D20417432D
:100F600002E0802252041743194305E0F37E002B70
:100F700002D08023DB041F432C23F35C002B03D11E
:100F8000364B1B689A0301D580231F432A68D36917
:100F9000002BFCD1434659602A68D369002BFCD151
:100FA00041460F600EAB80221A7000225A70DA7030
:100FB0009A70326B0A92736B0B93B76B0C97F66B4C
:100FC0000D9600270EAEF9B2BB000AAA9858002869
:100FD00002D1201C224A9047431C05D03070000CDF
:100FE000C0B2311C1F4A90470137042FEBD10023B8
:100FF000EB602B616B61AB61EB612B62AB626B628F
:101000000022EB85AB853023EA543123EA543223A6
:10101000EA543323EA542868084B9847041C1249C1
:10102000124B9847A400124BE550002011B03CBC75
:1010300090469946A246AB46F0BDC046CD0800009A
:101040000004004065190000D5180000F1060000FA
:101050008119000015050000410500000020004135
:1010600041070000451A0000C11100000D090000F1
:10107000F008002010B5021C0368C4791C20002C65
:101080000DD0D26A120C0520002A08D1DA69002A94
:10109000FCD1198502219A690A42FCD0002010BDBA
:1010A00010B5031C046882791C20002A36D0DB6A44
:1010B0009BB20520002B31D1A3695A072ED5E369D5
:1010C000002BFCD1A3691B0CDBB29A0623D09A0734
:1010D00003D5022363831A2020E05A0703D5042393
:1010E00063831E201AE0DA0703D5012363831320EC
:1010F00014E0DA0606D5A3691B0C102213436383A0
:1011000042200BE09A0606D5A3691B0C202213434C
:101110006383412002E0A36A0B80002010BDC0461B
:10112000F0B557464E464546E0B482B0061C8846A8
:101130001720002A39D0B3791C20002B35D0356810
:101140009246002704241C48814629E0AA692242CD
:1011500004D1012B21D0013B002BF7D16946063188
:1011600000230B80301C154A904700281DD17B1CA2
:101170009BB26A46063212884046C25571790129EF
:1011800003D1B91C120AC2548BB25246013A92B230
:101190009246002A03D1002007E0122005E01F1C20
:1011A000AB692342DAD14B46D0E702B01CBC904673
:1011B0009946A246F0BDC046FFFF0000A110000006
:1011C000F8B58000684BC5582C68E369002BFCD14A
:1011D000A36966693602360E1E403123EB5C30226D
:1011E000AF5C1F40F10720D5EB6A1B0C1BD0AB6A2C
:1011F0001A78D2B2591CA9626979012904D15978A7
:1012000009020A430233AB62D305DB0D2385EB6A87
:101210001B0C013B9BB2EB85002B06D101232375F0
:101220000223A37501E001232375B20709D5022328
:10123000237500223323EA54FB0702D5281CE968F2
:101240008847720771D5EB6A9BB2002B6BD0A369FC
:101250001B0CDBB2190702D43F22134001E03722F6
:101260001340002B3CD09A0708D51A223223EA54A7
:10127000A269120C0223134363832BE0590708D59C
:101280001E223223EA54A269120C042313436383FF
:1012900020E0DA0708D513223223EA54A269120C9F
:1012A00001231343638315E0D90608D54222322374
:1012B000EA54A269120C1023134363830AE020222C
:1012C0001A4207D041223223EA54A269120C202389
:1012D000134363837A0728D5281C6B69984724E059
:1012E000A26AD205D20DD3B2696A0B706B6A591C1F
:1012F00069626979012904D1120A5A706B6A013353
:101300006B62EB6A9BB2013B9BB2AB85002B0CD1AD
:101310000423237500223223EA54BA0705D5281C7A
:101320002B69984701E004232375F10607D51023A4
:1013300023752376FA0602D5281CEB699847B10677
:1013400007D52023237523763A0702D5281CAB69DD
:101350009847310707D5082323752376BA0602D5A7
:101360002B6A281C9847F8BDF008002008B508280B
:1013700033D880001B4B1B589F46802000022FE073
:10138000194B18692CE0194B186A8005800F184B0F
:10139000C340181C24E0144B586921E0124B1B6811
:1013A000022018401CD011491022CB681A42FCD0F0
:1013B0000D4B1B685A0712D500200E4B98470A4B5D
:1013C0009B681B041B0C58430AE0084B1B6D002054
:1013D0005A0705D5044BD86802E0002000E0064813
:1013E00008BDC0465CC00000BC00002000080040F2
:1013F00000127A0081190000006CDC0270B50C4B01
:101400001C6A0178857840780122104080014026CE
:10141000B44304432A40D00180229443221C024357
:10142000032001400902034802400A431A6270BDCA
:1014300000080040FFFCFFFFF0B54F464646C0B431
:10144000194A946941788C4605780679C7784379BA
:101450009946807801231840800004218C4304437E
:1014600060461840C00008218C430443181C3840D3
:1014700080014027BC430443181C3040C001802633
:10148000B4430443072028400002084D2C40044385
:1014900049460B4019030648231C03400B43936144
:1014A0000CBC90469946F0BD00080040FFF8FFFFD5
:1014B000FFEFFFFF10B5027A9206120C43899B05DD
:1014C0009B0D1A43154B5A60818842881143C47999
:1014D000827922430A434178C9010A431A6003789A
:1014E000042B0FD1027B9206038A1A43C3891B0483
:1014F0000B490B401A43094B9A60196804220A43AE
:101500001A6009E0202B07D1028A044B9A601968FF
:101510008422D2000A431A6010BDC046BC000020DD
:101520000000FF03082846D88000244B1B589F4624
:10153000002041E0224B196A02220A431A6200206D
:101540003AE01F4B996902220A439A61002033E076
:101550001B4B1A6992B202210A431A8200202BE027
:10156000174B5A6992B202210A439A82002023E063
:10157000144B196802220A431A601A68124B1A4067
:101580000F4B9A84191C1022CB681A42FCD00D4ACA
:1015900091680B4BD96251689962126892B29A8431
:1015A000002009E0064B596CC9B2022211434422C3
:1015B0009954002000E017207047C04680C000000A
:1015C00000080040BC0000207FFF0000F0B5574637
:1015D0004E464546E0B48CB04A4BC222D2009A60D7
:1015E000494A51681E2081430420804601435160CE
:1015F000464A1168C904490E09049869444A0240E0
:101600000A439A610AA8012646708670067107246B
:101610000470002291464271C6703E4B98470420E8
:101620003D4FB84705A800254A4642808280857113
:10163000C57104723F2343814246027045704246A1
:1016400002820473C381354B984704A84570057026
:101650008570334B98470620B847324B984701AC0A
:101660006660657006232370257265720120211C57
:101670002D4B9946984701202C4A9046904765701B
:1016800065720423237020239A4663602672022029
:10169000211CC8470220C04765702572657203236C
:1016A0002370524662600420211CC8470420C047B2
:1016B00026700020211C1E4B984700201D4B984788
:1016C0000720B8470F49D022CB681340D02BFBD15D
:1016D000194A002313725372937201A901224A60BE
:1016E0004B700B724B7207230B7000200E4B984708
:1016F00000200E4B98470CB01CBC90469946A24661
:10170000F0BDC04600080040004000412460800059
:10171000FFFF80FF3914000025150000B5140000FC
:10172000FD1300003D1700006117000011180000B4
:1017300065190000D518000000040040064B9969A7
:1017400008220A439A610122044B1A70191C0B6883
:101750001342FCD17047C04600040040000C00401A
:10176000F8B5061C071C0D782D0205434B78002B9D
:1017700002D08023DB021D434B7A002B02D0802352
:101780001B031D434C68012C17D9631E1C420FD14B
:10179000022C06D90223002201325B009C42FBD8B6
:1017A00000E000221702374380235B031D4304E05F
:1017B0002702374380239B021D430B7A002B02D064
:1017C00080239B031D430E4A13681904FCD40D4B60
:1017D00098470D4B1E700A490B681A04FCD4084B3D
:1017E0009F601A1C13681904FCD4054B59688022A9
:1017F00052020A4015435D60044B9847F8BDC0464D
:10180000000C0040D5010000080C0040150200004B
:1018100010B5041C0A4A13681904FCD4094B9847F4
:10182000094B1C70064A13681904FCD4044B596810
:10183000802252020A435A60044B984710BDC046AA
:10184000000C0040D5010000040C0040150200000F
:1018500070B5041C184A13681904FCD4174B984738
:10186000174B1C70144A13681904FCD4124E70688C
:10187000C004C00E134B9847051C114B1C707668B2
:10188000F602F60F104B1C700B4A13681904FCD4B7
:10189000094B9C682402240C0C4B9847002E07D15E
:1018A000012C07D9281C211C094B9847051C01E075
:1018B0000134E540281C70BD000C0040D50100003B
:1018C000040C00406D130000080C004015020000DD
:1018D00075A2000010B5041C064B9847064B1C70FF
:1018E000064B1968090C8022D2010A435A80044B26
:1018F000984710BDD5010000020C0040000C0040CC
:101900001502000010B5041C104B9847104B1C70BA
:10191000104B18680001000F59880F4A0A405A807E
:101920001A68120C0D490A405A80191C8022D201F3
:101930000B681B0C1342FBD1064B01025888064A68
:1019400002400A435A80064B984710BDD50100005B
:10195000020C0040000C0040FFF0FFFFFFBFFFFF44
:101960001502000010B50C7824020443024B98477E
:10197000A4B2024B5C8010BD05190000000C0040B1
:1019800010B5041C064B9847064B1C70064B1C6890
:101990002401240F054B9847201C054B984710BD88
:1019A000D5010000020C0040000C004015020000B0
:1019B0005118000030B5D378002B1FD11378802B3D
:1019C00004D01B0680246402234300E000235478E3
:1019D0000225AC430AD19478002C03D18024A402C0
:1019E000234302E0C024E402234341605478013CD5
:1019F000E4B2012C04D8124C234001E041600023E2
:101A00000D042D0CA024E4052C431C4384620D0C12
:101A1000D02424062C431C438462D478002C0DD19E
:101A20005C0305D59378012B01D1816100E0416110
:101A30005378013BDBB2012B00D8816030BDC0463A
:101A4000FFFFFBFF08B5031C0A1CC1090020002989
:101A500003D15809C001044940181F210B4001213E
:101A60009940024B984708BD00440041B519000059
:101A70007047C04608B5044B9847044B9847044B41
:101A80009847044B984708BDCD150000450200005B
:101A9000711A00003103000070B584B0011C01AB65
:101AA0000A4A70CA70C3019B83420AD0029C8442D6
:101AB00005D00020039D8D4205D1022002E00120C7
:101AC00000E00020C0B204B070BDC046A4C0000059
:101AD000F0B54F464646C0B487B0041C0D1C904676
:101AE000081C974B98478146964F391C0C3105A826
:101AF0000322954EB047391C103103A80622B04787
:101B00000023A360E3602361636123766376484624
:101B100082008E4BD450256041468B78082B04D12F
:101B200017204A46D20700D405E123712B6805200F
:101B3000D90700D5FFE0EB681C20DA0000D5FAE0F9
:101B40002B68990700D5F6E04246137C002B0CD099
:101B500002A901238B700022CA7040468069087078
:101B60004B704246107D7A4B98474046037F002BCE
:101B70000BD002A901238B700022CA70426A0A703E
:101B80004B70036AD8B2724B9847724B196A484639
:101B9000420003A8125A0A431A6241468B78082B66
:101BA00008D16C4B1A6A48460130400003A9415ADB
:101BB0000A431A6201A9424613780B7005AB4846E6
:101BC0001E5C301C644B9847301C644B9847414660
:101BD00088880B89034388798A78104318434B78A7
:101BE000002B02D080231B01184321687F22CB8960
:101BF0001B0A9343FBD128804246507B431E9841E9
:101C00008000937B002B01D00123184321687F22A1
:101C1000CB891B0A9343FBD1FF232B71002806D0ED
:101C200021687F22CB891B0A9343FBD1687143460D
:101C3000987ADB7A002B01D01023184341460B7BA6
:101C4000002B01D02023184321687F22CB891B0A57
:101C50009343FBD1A87122687F21D3891B0A8B4350
:101C6000FBD12379042B05D0082B48D01720002B5B
:101C700061D128E07F21D3891B0A8B43FBD1282324
:101C80004246D35C2B7421687F22CB891B0A934385
:101C9000FBD129234046C35C2B7521687F22CB8969
:101CA0001B0A9343FBD12A234146CB5C2B76216848
:101CB0007F22CB891B0A9343FBD12B234246D35C63
:101CC0006B76002037E07F21D3891B0A8B43FBD141
:101CD0004046038D2B8221687F22CB891B0A9343C8
:101CE000FBD141464B8D2B8321687F22CB891B0A78
:101CF0009343FBD14246938D6B8300201BE07F21F1
:101D0000D3891B0A8B43FBD143469B6A2B61216815
:101D10007F22CB891B0A9343FBD14046C06AA8614E
:101D200021687F22CB891B0A9343FBD141460B6B71
:101D3000EB610020FFE707B00CBC90469946F0BD70
:101D4000991A0000A4C0000061A400000809002046
:101D5000451A00000004004065190000D518000075
:101D600002687F21D3891B0A8B43FBD10379042BA3
:101D700005D0082B09D00020002B08D102E0106903
:101D8000C0B204E0106980B201E01069FFE770475B
:101D900030B504687F25E3891B0AAB43FBD1037987
:101DA000042B05D0082B14D01720002B19D107E0E5
:101DB0001720012915D8D2B261180A76002010E048
:101DC000172001290DD892B20C3149000A53002086
:101DD00007E01720012904D8063189000A510020A4
:101DE000FFE730BD931C9B001950022A04D1027EEC
:101DF0001023134303760CE0032A04D1027E202330
:101E00001343037605E0012393401A1C037E1A4313
:101E1000027600207047C04638B58000144BC45885
:101E20002368DD682D0C237E1D40637E1D40EA077C
:101E300005D5201CA3689847012322689373AB073C
:101E400005D5201CE2689047022322689373EB06B5
:101E500005D5201C22699047102322689373AB0696
:101E600005D5201C62699047236820229A7338BDEB
:101E70000809002008B50020014B984708BDC0465E
:101E8000191E000008B50120014B984708BDC04647
:101E9000191E000008B50220014B984708BDC04636
:101EA000191E0000FEE7C04610B5194B194A9A42A8
:101EB00003D0194B164A9A4204D3184B184A9A4237
:101EC00010D31BE0174B14480330C01A80080130B0
:101ED000800000230E490F4AD458CC50043383426B
:101EE000FAD1EAE70E4B1A1D0C490331891A890809
:101EF00089005218002102C39342FCD10A4B7F2172
:101F00000A4A8A439A600A4B98470A4B9847FEE769
:101F10000000002004C90000740000209C0B002079
:101F2000780000200400002000ED00E00000000028
:101F300019A40000499B0000F0B5474680B40C1C72
:101F4000904600280CD1002A0DDD8F18094E0A4D4D
:101F50003068211C2B6898470134BC42F8D104E05A
:101F60000120404202E0002000E0404604BC9046D0
:101F7000F0BDC0461C09002014090020F0B54746FA
:101F800080B40E1C151C0138022810D8002A11D06C
:101F900000240D4B98460D4F43461868315D3B6851
:101FA0009847002808DB0134A542F5D107E001205D
:101FB000404205E0002003E00120404200E0201CF8
:101FC00004BC9046F0BDC0461C0900201809002042
:101FD000064B1B68002B02D1054A044B1A60034ACA
:101FE000136818181060181C7047C046D4000020F1
:101FF000A02B0020012040427047C04680239B0157
:102000004B6000207047C046012070470020704799
:1020100070B582B0051C0E1C00226B46DA80064C9F
:10202000281C69460631A0470028F9D16B460633C3
:102030001B88337002B070BDA110000070B5061C83
:102040000D1C034C301C291CA0470028FAD170BD80
:102050007510000000B583B01348694607310122AE
:10206000124B984772B6BFF35F8F0022104B1A7065
:10207000104B1A7801321A700F4B1B786A46D179CF
:102080000E4AD1549B2B03D100220B4B1A7002E055
:102090000133094A13700122054B1A70BFF35F8F99
:1020A00062B603B000BDC0467401002021110000DB
:1020B00008000020A9010020A8010020D80000206D
:1020C000F0B591B08023DB05009300230193FF223C
:1020D0006846028100228372C372962189010891A9
:1020E00001262421465425214654262143542721E4
:1020F00043540A932C2143542D21435405930382C6
:10210000C376027602774276132383764277802362
:102110005B0303932A4B0C932A4B0D9301235B42E1
:102120000E930F93284C294B1C60294A294B1A60A7
:10213000294A2A4B1A60201C29496A46294B98478C
:10214000294F3B6898680021284DA8473B6858688C
:102150000021A8472568281C254B98471F231840B5
:102160008640244B1E602268D369002BFCD12A686C
:10217000022313432B60144B1B68DA69002AFCD13D
:102180005968802252020A435A6001210E4AD171D5
:10219000DA69002AFCD15968802292020A435A6007
:1021A0000122094B9A7100201349144B98470422CD
:1021B0000B4B9A75802292000E4B1A6011B0F0BD45
:1021C00005001B0005001C00740100201C090020F4
:1021D0003D200000180900201120000014090020F3
:1021E000001400426D0D00001000002041A9000005
:1021F0004909000000E100E0552000000D09000041
:1022000010B5114B1B780024002B0ED10F4B1B7AFD
:10221000002B0AD00D4800210D4B9847002803D011
:102220000C4B9847012400E000240B4B1B7A002B39
:1022300008D009480021064B9847002802D0054BDA
:1022400098470124201C10BDA90900203409002052
:10225000C57A0000594000006409002008B5034811
:10226000034B9847034B984708BDC046AC09002074
:10227000297A00005552000010B5094B9847041CFC
:1022800008480021084B9847002802D0074B984780
:102290000124074B9847074B9847201C10BDC046A8
:1022A00001220000AC090020C57A0000594000005E
:1022B0007D7E0000E9770000F8B55F4656464D4642
:1022C0004446F0B483460E1C151C98460AAB1B7896
:1022D0009A460BAB1B7899460020762A5AD89C2048
:1022E0002F4B9847071E54D00378447824021C4390
:1022F00083781B041C43C3781B061C4303232370F1
:102300005B4663703378A3707178B278E1702271A4
:10231000023BDBB2012B2AD800236371A371E37166
:1023200023726372A372E3722373F3783279120219
:102330001A4373791B041A43B3791B061A43F179C4
:10234000337A1B020B43717A09040B43B17A0906F5
:102350000B436271110AA171110CE171120E22720C
:1023600063721A0AA2721A0CE2721B0E237353468E
:1023700063734B46A373E573641B201C9A3041467C
:102380002A1C084B98470848391C084B98470120DD
:1023900000E000203CBC90469946A246AB46F8BD02
:1023A0007178000061A4000034090020417A000027
:1023B000F0B5474680B4061C0F1C151C98469C209F
:1023C000234B9847011E3FD00378447824021C43D6
:1023D00083781B041C43C3781B061C430123237012
:1023E00066702B78E3706B78A87800021843207130
:1023F000000A6071EB782E7936021E436B791B045C
:102400001E43AB791B061E43EB79287A0002184362
:102410006B7A1B041843AB7A1B061843A671330A68
:10242000E371330C2372360E6672A072030AE372F4
:10243000030C2373000E60734346A373A770054813
:10244000054B9847012000E0002004BC9046F0BDF9
:102450007178000034090020417A000010B5041C96
:102460009C200C4B9847011E11D0027843781B0228
:102470001343827812041343C278120613430922CD
:102480001A705C700448054B9847012000E000205A
:1024900010BDC0467178000034090020417A000068
:1024A00010B5041C9C200C4B9847011E11D00278DB
:1024B00043781B021343827812041343C278120636
:1024C000134308221A705C700448054B984701209A
:1024D00000E0002010BDC0467178000034090020E3
:1024E000417A000070B5051C0E1C9C20104B9847CB
:1024F000041E1AD0281C0F4B9847021C21786378C1
:102500001B020B43A17809040B43E17809060B4336
:10251000062119705D70981C311C074B98470748BD
:10252000211C074B9847012000E0002070BDC046E9
:10253000717800001D58000061A4000034090020DB
:10254000417A0000F0B54F4680B481460E1C151C40
:102550001F1C9C2011498847011E1BD0037844781A
:1025600024021C4383781B041C43C3781B061C43B2
:102570000B2323704B466370A670330AE370330C51
:102580002371360E6671A571E7710548054B9847B2
:10259000012000E0002004BC9146F0BD71780000ED
:1025A00034090020417A0000F8B5071C0E1C151CE8
:1025B0009C200D4B9847011E13D0027844782402CA
:1025C0001443827812041443C278120614430F2273
:1025D00022706770A670E5700448054B984701208B
:1025E00000E00020F8BDC0467178000034090020EA
:1025F000417A000038B5041C0D1C9C200D4B9847F7
:10260000031E15D00178427812020A43817809042A
:102610000A43C17809060A430C2111705470240A38
:102620009470D5700448191C044B9847012000E0B1
:10263000002038BD7178000034090020417A000084
:1026400010B5031C04784078000220439C782404D1
:102650002043DC782406204314240470C1704270A7
:10266000120A82700248191C024B984710BDC046DE
:10267000AC090020417A000030B583B00F4B1868D8
:10268000EB210F4A0F4B984700240F4B1C706946F3
:10269000063101256D420D8050200C4B98470C4BA4
:1026A0001D725D721C705C709C70DC701C715C71C2
:1026B0009C71DC71074B984703B030BD4409002082
:1026C000FFFF00004126000031090020E157000013
:1026D0004809002001500000F0B585B0041C0378C3
:1026E00041780902194383781B041943C3781B06F8
:1026F000194368460F22804B9847804B1C60684600
:10270000C3789A1ED2B2012A05D9201CE8217C4A3E
:102710007C4B9847EEE0022B05D17B4B82791A72F5
:10272000C2795A721DE0784B6D46C288018909044E
:1027300011434089AA89120402431970080A58708B
:10274000080C9870090ED9701A71110A5971110C80
:102750009971120EDA71022252421A720122524209
:102760005A72502001A9694B9847694B98472378C2
:1027700065782D021D43A3781B041D43E3781B06D7
:102780001D4301232B706C70220AAA70220CEA7080
:10279000220E2A719822AB546846827B9923EA5410
:1027A0005C4B1A785978090211439A781204114344
:1027B000DA781206114318795A791202024398798D
:1027C00000040243DB791B061A432B1C90332E1C9A
:1027D000983619701006090A0143120A0133B342F0
:1027E000F7D1FF238E22AB548F22AB546946CB78AE
:1027F000022B0ED12E1C8C36434A117A537A1B02BF
:102800000B438C22AB541B0A8D22AB54424F152034
:1028100023E02E1C86363C4B1A7859780902114366
:102820009A7812041143DA781206114318795A790A
:1028300012020243987900040243DB791B061A4313
:10284000331C2F1C8E3719701006090A0143120A17
:102850000133BB42F7D1314F1B202E4A917CD37CF0
:102860001B020B43B21E1370721E1B0A1370264A02
:10287000937C591C9174F11E0B70731F23211970E6
:10288000331F3A0A1A70063E30706E74330AAB7406
:10289000330CEB74360E2E750420694602311B4E44
:1028A000B047071C002069460131B0470743F8B222
:1028B000002818D11A4B197803394B1E994103236C
:1028C000591A281C0122174B9847002803D10122CE
:1028D000154B1A700EE0201CE121094A094B98475C
:1028E000124B984706E0201CE121054A054B98470A
:1028F0000E4B984705B0F0BD61A4000044090020CC
:10290000FFFF00004126000048090020E1570000B9
:1029100061500000B40A002023C8000023CC00004E
:102920003E090020D1910000A909002001500000BB
:1029300070B582B02423314AD55C314B9847002DC5
:102940003BD1304C5320211C2F4B98472378201C1F
:102950002238627812021A432C4BC17C047D240277
:102960000C43417D09040C43817D09060C43C67D5F
:10297000017E09023143467E36043143807E0006E3
:1029800001431C70200A5870200C9870240EDC70D3
:102990001971080A5871080C9871090ED971012132
:1029A0001B4B19701B4B002119701B4B1B78032B01
:1029B0001AD10221184B197016E00024154B1C7017
:1029C00069460631012676420E8050200E4B98470C
:1029D0000E4B1E725E721C705C709C70DC701C7101
:1029E0005C719C71DC710D4A0D4B1868291C0D4BF4
:1029F00098470D4B984702B070BDC046740900203F
:102A00008578000096090020E15700004809002061
:102A1000A8090020310900203E090020FFFF000026
:102A200044090020412600000150000030B583B069
:102A3000124B1A7B597B09020D1C1543002300938E
:102A40000020012100220E4CA047002806D10D4B8A
:102A50001868E1210C4A0D4B98470DE00C4B187893
:102A600029010023009300220A4B0B4CA0470028A9
:102A700002D00020074B984703B030BD4809002022
:102A8000413A000044090020FFFF000041260000F9
:102A9000D809002079260000B5770000F0B58BB08A
:102AA000061C0378447824021C4383781B041C43CF
:102AB000C3781B061C4307AD63782B70A378E278BC
:102AC00012021A4312024A4B079919400A4307920D
:102AD0002279617909021143A27912041143E27942
:102AE00012061143207A627A12020243A07A00048D
:102AF0000243E07A00060243E970090AE879000619
:102B000001430891EA71120AE97A09060A43099217
:102B10002179607900020843A17909040843E17929
:102B200009060843277A617A09023943A77A3F04E4
:102B30003943E77A3F063943E870000AEF793F06E8
:102B400038430890E971090A120E120611430991DF
:102B500004A9227B0A70607BA27B1202024312024C
:102B60000498034013430493E37B227C12021A432C
:102B7000637C1B041A43A37C1B061A43E07C237D61
:102B80001B020343607D00040343A07D0006034352
:102B9000CA70120AC879000602434A60CB711B0A48
:102BA000CA7A120613438B60627FA07FE37F1B0209
:102BB00003432020205C000403432120205C000606
:102BC0000343E07D0090207E0190677EA07E00029E
:102BD0003843E77E3F043843247F24062043029095
:102BE000281C044CA047301C034B98470BB0F0BD89
:102BF000FF0000FF459C00008578000038B5041CEC
:102C0000027843781B021343827812041343C2787C
:102C10001206134358789978DD781A7912022A43FC
:102C20005D792D042A439B791B061A43024B984772
:102C3000201C024B984738BD399C00008578000065
:102C400010B5041C027843781B02134382781204E7
:102C50001343C278120613435A789878000210433F
:102C6000D978034B9847201C024B984710BDC046AB
:102C7000099D000085780000F0B583B0051C03783D
:102C8000447824021C4383781B041C43C3781B062E
:102C90001C436078A11CE27D267E637E1B023343C9
:102CA000A67E36043343E67E36063343267F0096FF
:102CB000677FA67F36023E43E77F3F043E432027DF
:102CC000E45D240634430194034CA047281C034BC5
:102CD000984703B0F0BDC0466D9D000085780000A8
:102CE00030B585B0041C027843781B021343827808
:102CF00012041343C2781206134301A99A780A708A
:102D0000DD781879000228430002164A019D2A4006
:102D1000024301925A79987900021043DA79120439
:102D200010431A7A120610435D7A9A7A12022A43E5
:102D3000DD7A2D042A431D7B2D062A43C870000A24
:102D4000CD792D0628434860CA71120AC87A000658
:102D500002438A605878044B9847201C034B9847DD
:102D600005B030BDFF0000FFA59E00008578000083
:102D700010B5041C027843781B02134382781204B6
:102D80001343C278120613435A789878000210430E
:102D9000DA78120410431A79120610435A79997995
:102DA00009021143DA79120411431A7A1206114307
:102DB0005A7A034B9847201C024B984710BDC046D7
:102DC000A99E00008578000010B5041C03784278A5
:102DD00012021A4383781B041A43C3781B061A4352
:102DE000507891780332034B9847201C024B984748
:102DF00010BDC046AD9E00008578000010B5041CD3
:102E0000027843781B021343827812041343C2787A
:102E1000120613435878034B9847201C024B9847DF
:102E200010BDC046619F00008578000010B5041CED
:102E3000027843781B021343827812041343C2784A
:102E4000120613435878034B9847201C024B9847AF
:102E500010BDC046659F00008578000010B5041CB9
:102E6000027843781B021343827812041343C2781A
:102E7000120613435878034B9847201C024B98477F
:102E800010BDC0468D9F00008578000070B582B0EF
:102E9000051C0378447824021C4383781B041C43DC
:102EA000C3781B061C436078A178E27826796379A1
:102EB0001B023343A67936043343E679360633439F
:102EC000267A009609340194034CA047281C034B32
:102ED000984702B070BDC046919F00008578000001
:102EE00010B5041C027843781B0213438278120445
:102EF0001343C2781206134358789978024B9847C7
:102F0000201C024B984710BD91A00000857800005E
:102F100010B5027843781B021343827812041343DE
:102F2000C2781206134358789A78D9780902114367
:102F30001A795B79014CA04710BDC046E5A000009E
:102F400010B5041C027843781B02134382781204E4
:102F50001343C2781206134358789978024B984766
:102F6000201C024B984710BD419C00008578000052
:102F700010B5041C027843781B02134382781204B4
:102F80001343C278120613435A789878000210430C
:102F9000D978034B9847201C024B984710BDC04678
:102FA0003D9C000085780000F0B583B0021C464BC4
:102FB00019785D782D020D43A90B2C05A40F002074
:102FC000002C36D0507816789E71D871022C0FD113
:102FD0000020187258729872D872187358739873C8
:102FE000D873D07896781E7258720432042020E08C
:102FF000931C032C1BD10023D01880786E46985563
:103000000133082BF8D1009E01982F4B1E72370A0E
:103010005F72370C9F72360EDE721873060A5E738B
:10302000060C9E73000ED8730A320A2001E01A1CA7
:10303000022000293ED06B0608D4234B5578167821
:103040005E749D7402320230C0B204E01E4B9E7961
:10305000DD795E749D74022910D11B4B0025DD744F
:103060001D755D759D75DD751D765D769D76557852
:103070001278DA741D750230C0B21BE0032919D131
:103080000023D55C6E469D550133082BF9D1009D78
:10309000019A0D4BDD742E0A1E752E0C5E752D0ED9
:1030A0009D75DA75150A1D76150C5D76120E9A76E9
:1030B0000830C0B2044BDD78053D2D1A21229D5405
:1030C00019745C7103B0F0BD7409002070B523233E
:1030D0007C4AD35C5A0600D4F2E000280BD1794B2D
:1030E000587C9A7C1202784B997CDB7C1B02024351
:1030F0000B439A4209D0734B597C9B7C1B02734A49
:1031000012880B439A4200D0DAE06E4BD87C1A7DCD
:1031100012026F4B197A5B7A1B0202430B439A42ED
:1031200000D1CDE0674B197D090201435A7D12049D
:1031300011439A7D12061143DA7D1D7E2D0215433F
:103140005A7E120415439B7E1B061D43604B187864
:103150005A7812020243987800040243D878000695
:1031600002431C795879000220439C7924042043AF
:10317000DB791B061843914202D1854200D19FE0C2
:103180009C20544B9847051E00D199E00378447861
:1031900024021C4383781B041C43C3781B061C4376
:1031A000052323706070020AA270020CE270020E06
:1031B00022719922A354444B1A7859780902114379
:1031C0009A7812041143DA781206114318795A7961
:1031D00012020243987900040243DB791B061A436A
:1031E000231C9133261C993619701006090A0143D5
:1031F000120A0133B342F7D1354B1A7859780902D4
:1032000011439A7812041143DA781206114318799F
:103210005A7912020243987900040243DB791B06B3
:103220001A43231C8933261C913619701006090A8B
:103230000143120A0133B342F7D1234A917CD37C74
:103240001B020B43872163541B0A882163542049C6
:103250008B7C581C88748621635463218423E15439
:10326000CC218523E15418218323E154231C83338B
:103270006374190AA174190CE1741B0E2375537F32
:103280000F2B0FD0144B1978002906D1134B197846
:1032900003394B425941023105E001394B42594152
:1032A000023100E00221201C01220D4B984700282A
:1032B00003D101220B4B1A7002E0281C0A4B9847DD
:1032C00070BDC04674090020B40A002060090020C7
:1032D0004809002071780000A80900203E0900205C
:1032E000D1910000A909002085780000F0B557466B
:1032F0004E464546E0B484B0051C03784478240269
:103300001C4383781B041C43C3781B061C43637C4B
:10331000A17C09021943E27C12041143227D1206AA
:1033200011430A78BE4BDA708A1852781A77617C9A
:10333000A27C12020A43E17C09040A43217D0906AA
:103340000A4397783F0251780F43BEB21E70310A8C
:103350005970101D8046D2781A71B24B98473107C8
:1033600000D5FFE0804407233B40AD4A9370032B18
:1033700016D143461A78AA4BDA76617BA27B1202F9
:103380000A43E17B09040A43217C09060A435A7770
:10339000110A9977110CD977120E20215A54A4E002
:1033A000627BA77B3F021743E27B12041743227C18
:1033B000120617439A4A5777390A9177390CD17711
:1033C0003F0E20215754012B70D0002B03D0032B2C
:1033D00000D0C7E089E0944E301C41460222934B56
:1033E00098474746BB78B370072213400322002B4F
:1033F00013D0F8788A4A25215054414604312620BA
:1034000011540E0A272016540E0C28201654090EAB
:10341000292011545A009A180432531C4046825CE9
:103420002A217F484254072111405206520F101C96
:10343000084316D07A4EB2464746FE182B27504610
:10344000C655370A2C208146504648440770370C31
:103450002D208146504648440770360E2E27504690
:10346000C655002902D049005B18DBB2002A02D001
:10347000D2009B18DBB221226949895C994210D99C
:10348000674AC91A2F201154434430215354180A53
:1034900031215054180C322150541B0E33215354F7
:1034A00061E200212F235E4AD1545CE221235C4A71
:1034B000D35C002B14D0752B02D976212123D15453
:1034C000574B2222414699544246110A23229954CD
:1034D0004646310C24229954310E2522995442E259
:1034E000002121234E4AD1543DE24D4BDA7E092A78
:1034F00038D893004E4AD3589F464B4E414601312F
:10350000301C0222494B98474746FB78B3702AE2A9
:10351000404641782223424AD15424E2424F414658
:103520000131381C0222414B99469847B81C41464C
:1035300003310222C847404643793B71781D41461A
:1035400006310222C847F10400D40CE24246117A47
:103550002923334AD15406E2434659782223304A7C
:10356000D15400E2281C334B98474DE22C4B9B78FA
:10357000032B0AD12A4BDB7E042B01D0072B04D16D
:103580002D48291C2D4B98473EE22D4B1B78012BD3
:1035900000D1C7E1002B04D0DBB2032B00D9D7E167
:1035A000A3E1284B1B78002B00D06CE1264B1A7846
:1035B0000023012A00D9D0E1194B9B78012B00D1BF
:1035C00058E1002B03D0032B00D13BE157E11F4B07
:1035D000DB7B002B04D0002A02D000201C4B984734
:1035E0000F4B5E7C997C09021A4B987CDA7C1202A4
:1035F000314302430023914200D0AEE1084B1A7CD4
:10360000022A29D1D87C1A7D1202104B197A5B7AD2
:103610001B0202430B439A4252D000239DE1C04655
:1036200074090020A92F00009609002061A4000061
:10363000BCC000008578000064090020417A0000C9
:10364000310900203D090020A80900204809002078
:10365000CD300000B40A00200023032A00D07CE112
:10366000C44BDA7C197D090211435A7D12040A43C6
:10367000987D00061043D97D1A7E12020A43597EB6
:10368000090411439A7E12060A43BB4B1E785978EF
:10369000090231439E7836040E43D9780906314336
:1036A0001E795F793F0237439E7936043E43DB79CA
:1036B0001B063343884200D0BEE09A4200D0BBE0F4
:1036C000627BA37B1B021343E27B12041A43237C1D
:1036D0001B0613431B090393482003A9A74B9847D4
:1036E000A74B1B789A1ED2B2012A7ED8281CA54B64
:1036F0009847A54B5B7F0E2B03D8F024A4009C4079
:1037000001E0F024A400A14B1878A14B98479E4EED
:10371000B0469E4F9F4881460399621812011209D4
:1037200003924646737F02330D2199408A4203D9A2
:10373000511A0901090904E0511A974809180901A9
:103740000909387809010023009301224B46934E62
:10375000B0470028E0D1924B1B78012B29D10022E1
:10376000904B1A70904B98470620904B9847864A8A
:10377000937F527F9A4209D98D4A1078F0218901AE
:103780009940002200928B4B844CA0478A4B1B78B7
:103790000E2B0ED8894A107801337B4A927FF02194
:1037A000890191400909594300220092844B7B4CC6
:1037B000A047844B98477A4B1B78022B3ED0824B14
:1037C0001A780123002A00D0C7E0804B1A78012321
:1037D000002A00D0C1E07E4B1A780123002A00D0D5
:1037E000BBE07C4B98470123B7E0012B1FD1281C7D
:1037F000644B98470022624B1A70694B1B78022B6E
:103800001ED0714B1A780123002A00D0A5E06F4B1F
:103810001A780123002A00D09FE06D4B1A7801230B
:10382000002A00D099E06B4B9847012395E0281CB3
:10383000694B9847012390E000238EE001238CE040
:1038400001238AE04B4BDB7E032B02D0082B0CD0EC
:1038500017E0281C614B9847514B1A780123012A25
:103860007BD15F4B9847012377E0281C5D4B98473D
:10387000012372E0281C5C4B984701236DE0002374
:103880006BE0002369E0032B1AD0042B01D0022B3C
:1038900029D1384B9A780023002A5ED1364BDB7B46
:1038A000002B08D03E4B1B78013BDBB2012B02D82A
:1038B00001204E4B9847281C324B984701234CE07F
:1038C0002C4B9A780023032A47D12A4BDA7E002317
:1038D000082A42D1464B18782D4B9847281C454B57
:1038E0009847012339E0002337E0434B9847214BA9
:1038F0009B78012B12D0032B2CD11E4BDB7E032B8C
:1039000002D0082B06D027E0281C344B9847344BB4
:10391000984779E0281C334B984775E0281C324BB8
:10392000984771E0134B9B78032B0BD1114BDB7E37
:10393000022B14D1314B1878154B9847281C304B6B
:10394000984761E0012B0AD1281C274B98475BE080
:10395000002302E0002300E00023002B54D1281CA8
:103960001D4B984750E0274B1B78002B00D0FDE5FE
:103970000BE6C0467409002048090020E15700000A
:103980003E090020195A0000B40A0020DD09002079
:10399000797700006D6E0000FFFFFF0FB577000024
:1039A000A80900200900002061500000AD89000036
:1039B000DA0900208D6E00003F090020DE0900209A
:1039C000194700004D6F00003D090020310900201B
:1039D0005D0900200150000085780000713F000063
:1039E000B552000079700000B14C0000CD300000ED
:1039F000DC0900208D6D00007D590000D8090020F1
:103A000031290000A909002004B01CBC9046994649
:103A1000A246F0BD08B500230370437881780902FF
:103A20001943C3781B04194303791B06194302D0B9
:103A30000148024B984708BD64090020417A000004
:103A4000F8B55F4656464D464446F0B4051C0C1C7E
:103A5000904699460AAB1B889A469C20A34B9847F0
:103A6000071E00D13BE10378467836021E43837877
:103A70001B041E43C3781B061E43002D02D00423E3
:103A8000337001E00C23337077703B0AB3703B0C4A
:103A9000F3703B0E337104229923F254944B1A7C39
:103AA0005B7C1B0213439A1C92B2012A01D9002CA1
:103AB00022D0301C91308E4B1A785D782D02154340
:103AC0009A7812041543DA78120615431A795C794C
:103AD000240214439A7912041443DB791B061C4315
:103AE000011C321C99320D7023062D0A1D43240A35
:103AF00001319142F7D109E0301C97309722B3543D
:103B00001B0A9822B3547B4B0C2501E07A4B1225FB
:103B10004146002911D076498C7CCA7C120222438E
:103B200052450AD0811E0235EDB20A700138120AE0
:103B30000270081C0022944603E040221343012433
:103B4000A446414602290ED1802212011A43904612
:103B5000831E4A461178527812020A431A700138BD
:103B6000120A02706BE0032929D1C02212011A4304
:103B70009046031C083B0635EDB249460A784C785E
:103B8000240214438A7812041443CA781206144398
:103B90000A794979090211434A469279120411437C
:103BA0004A46D279120611431A1C8146147008063F
:103BB000240A0443090A01324A45F7D13FE04F493C
:103BC0000C7A4A7A120222434D498A4209D0802156
:103BD000090119438846831E1A700138120A0270BF
:103BE0002DE0C02212011A439046031C083B063503
:103BF000EDB2424C2178647824020C433F4A91781C
:103C000009040C43D17809060C4311795279120248
:103C100011438B463949897909045A460A4391462A
:103C20003649CA791206494611431A1C8146147056
:103C30000806240A0443090A01324A45F7D16246BC
:103C4000002A0AD02A49887CCA7C12020243991EA3
:103C50000A70591E120A0A7006E09A1E5446147021
:103C60005A1E5046010A117024498A7C501C8874DF
:103C7000D91E0A705A1F414611701A1F4446210A64
:103C80001170063B1D7073741A0AB2741A0CF27428
:103C90001B0E3375164B5B7F0F2B0FD0194B19780A
:103CA000002906D1184B197803394B42594102318A
:103CB00005E001394B425941023100E00221301C3C
:103CC0000122124B9847002804D10122104B1A7090
:103CD000012005E0381C0F4B9847002000E0002031
:103CE0003CBC90469946A246AB46F8BD71780000B0
:103CF000B40A00202380000023C0000048090020EF
:103D0000FEFF0000A80900203E090020D19100001C
:103D1000A90900208578000070B5061C049D007874
:103D2000747824020443B07800040443F078000659
:103D30000443162020706170A270E3701B0A237187
:103D4000022A19D100236371A371E3712372637294
:103D5000A372E37223732A786B781B021343637197
:103D60001A0AA2710022E2711B0E237200236372F1
:103D7000A372E372237321E02B786A7812021A434C
:103D8000AB781B041A43EB781B061A4329796B792D
:103D90001B020B43A97909040B43E97909060B437C
:103DA0006271110AA171110CE171120E227263721B
:103DB0001A0AA2721A0CE2721B0E23730248311CFB
:103DC000024B984770BDC046AC090020417A000004
:103DD000F0B587B0061C037845782D021D43837823
:103DE0001B041D43C3781B061D4302AC201C291C69
:103DF0000E22564B98476388554A917CD27C12021A
:103E00000A43934208D002AA527803A90091301CB9
:103E1000E821504CA04796E06E70330AAB70330C2B
:103E2000EB70330E2B7103232B709822AB5402AB33
:103E30001A7B9923EA54464B1A785C78240214437F
:103E40009A7812041443DA781206144319795A79CD
:103E500012020A43997909040A43DB791B061A43C3
:103E60002B1C9033281C98301C701106240A0C431C
:103E7000120A01338342F7D102AB5B78022B09D1DE
:103E80002C1C8E34039B8E22AB541B0A8F22AB5406
:103E900013210FE02C1C88340399049A231C2F1C37
:103EA000903719701006090A0143120A0133BB4208
:103EB000F7D11921264FBA7CFB7C1B021343A21EAB
:103EC0001370621E1B0A1370234A937C581C907453
:103ED000E21E137002AB5A789202204B1A43631F02
:103EE00063201870231F120A1A70063C21706C742C
:103EF000230AAB74230CEB74240E2C75184B9847D3
:103F00003378707800021843B3781B041843F378B1
:103F10001B061843797F0F394B1E9941023101224C
:103F2000104B9847002803D101220F4B1A700AE06A
:103F300002AB5A785B8803A90091301CE121054C43
:103F4000A0470A4B984707B0F0BDC04661A40000E7
:103F5000B40A0020193D00004809002063C0FFFF9B
:103F600061500000D1910000A9090020015000001B
:103F700070B5011C027843781B0213438278120447
:103F80001343C2781206134315221A701B4AD07CC1
:103F9000157D2D020543507D00040543907D0006EC
:103FA0000543D47D107E00022043547E2404204328
:103FB000947E2406204300245D702E0A9E702E0CF1
:103FC000DE702D0E1D715871050A9D71050CDD7195
:103FD000000E18722220125C5A720948094B984749
:103FE000094B1C705C709C70DC701C715C719C7166
:103FF000DC71012252421A725A7270BD740900209B
:10400000AC090020417A00004809002010B582B0B8
:104010000F4B1A7C5B7C1B02134302339BB2012BB8
:1040200009D80B4A947CD37C1B02234300920322C1
:10403000084CA04709E0064A947CD37C1B0223432A
:10404000103200920222034CA04702B010BDC046BD
:10405000B40A0020193D000008B5027843781B021D
:104060001343827812041343C278120613431B7859
:10407000232B08D89B00044A9B58002B01D098475B
:1040800001E0024B984708BDE4C0000085780000BD
:1040900038B5051C0C1C9C200C4B9847031C017860
:1040A000427812020A43817809040A43C17809065A
:1040B0000A435470240A94703F210D40D570192191
:1040C00011700348191C034B984738BD71780000E4
:1040D000AC090020417A000010B5031C0478407838
:1040E000000220439C7824042043DC7824062043EB
:1040F00018240470817042700248191C024B9847C2
:1041000010BDC046AC090020417A0000F0B547461A
:1041100080B482B0041C037845782D021D43837857
:104120001B041D43C3781B061D4301A8291C042240
:10413000724B98476B78AA781202171C1F43704B7A
:104140001A7C5E7C360216436E4B9E420BD86E4B39
:10415000197A587A000208436A4988420AD96B4B97
:104160001B78032B06D001ABDA78201CEC21684BBE
:104170009847BEE0644B9B7B012B25D101ABDB78DC
:104180001B071B0F9846DBB2002B1DD05F4A12782D
:10419000012A00D0A7E0BE4216D15E4A1278022A58
:1041A00012D101AAD278910615D401AAD278D206EA
:1041B000D20FD100584841180979002904D0D20003
:1041C00082185279934206D001ABDA78201CE8219C
:1041D0004F4B98478DE0514B9847227863781B02EC
:1041E0001343A27812041343E27812061343092200
:1041F0001A705C70210A9970210CD970210E197106
:1042000098215A546A46D179992299543C49087C9C
:104210004A7C1202024396201A54120A97201A541A
:10422000394A177A507A000238439427D855000A41
:104230009527D855887CC97C0902014392201954DE
:10424000090A93201954917C481C90749122995426
:1042500063218F2299548821902299540D218E2216
:1042600099541A1C8E325A74110A9974110CD9740B
:10427000120E1A75281C03210122294B9847011E92
:104280002BD101ABDA78D206D20F1F4B197A5B7AA9
:104290001B020B439E4201D102231A4301ABDB7880
:1042A00099060DD4D2001C4B9A1800235371137138
:1042B000D37101ABDA78201C0021154B984718E028
:1042C000154BD200D4509B180122DA710421997148
:1042D00041465971134B1A700BE001ABDA78201C80
:1042E0000B4B984705E001ABDA78201CE821084B1E
:1042F000984702B004BC9046F0BDC04661A40000DF
:10430000B40A0020FDFF000048090020A809002091
:10431000D94000003E090020B8090020615000008B
:10432000D1910000A9090020F0B55F4656464D46E0
:104330004446F0B485B08A46141C0021002800D100
:10434000C5E00138C0B201304300181810180390BE
:104350000026624A91466B46197001235546354145
:104360001D40617809022278114320226F463F7870
:104370003A432B401B01102082431A43A3781B09A8
:104380009C46D8B202900F239A4302436B461A70A0
:104390004846077C437C1B023B438B4208D0504B72
:1043A0001F7A5B7A1B023B438B4200D089E006E018
:1043B0004B48077A407A00023843834201D10223F6
:1043C0001D43A846EB00474FFB18DB79012B20D19A
:1043D000A3781B07190F002B08D1ED0079190020D5
:1043E000C871E859E221404B98476AE0281CEB006D
:1043F0003C4DEB185B79029D9D4262D1394BC00068
:104400001D1829710221E971C0580021364B9847C7
:1044100057E0002B11D1A3781B074AD0ED00314B98
:104420005D1960466871A3781B071B0F2B71101C68
:104430002E4B98470223EB7143E0022B39D1A3782E
:104440001B0736D1EB002748C018804663464371EE
:10445000A3781B071B0F03712023101C98436F4682
:104460003870224B984700234046C371002D28D155
:104470001F4B1B7A002B24D01D4D1E4988461E4A17
:1044800093463F78281C0021C047027843781B02DE
:104490001343827812041343C278120613435A79E5
:1044A000E6210023D8472B7A002BEBD16D462F70E5
:1044B00007E04746FD00A3781B071B0F094F7D1936
:1044C0002B7103340136039DAC4200D045E705B0A3
:1044D0003CBC90469946A246AB46F0BDB40A0020CB
:1044E00048090020B8090020D94000009140000090
:1044F000AC010020C57A00001149000008B502484F
:10450000024B984708BDC046AC010020297A000044
:1045100008B50023064A1370064A1360536093607F
:10452000D360136153619361D361034B984708BD16
:10453000B8010020B8090020FD44000038B5051C72
:1045400000211B4B9847002831D002784478240280
:104550001443827812041443C27812061443607024
:10456000020AA270020CE270030E237165722B0A1C
:10457000A3722B0CE3722D0E2573201C0121012246
:104580000C4B9847002803D101220B4B1A700EE008
:104590006378A07800021843E3781B04184323795A
:1045A0001B0618436279E1210023044CA04738BD63
:1045B000C57A0000D1910000A9090020114900002E
:1045C00038B5041C0D1C427983791B021343C27950
:1045D00012041343027A12061A43414B1B78012B33
:1045E00076D1404B197A5B7A1B020B4392B293420D
:1045F0006ED13D4B1B79002B6AD02A786B781B0259
:104600001343AA7812041343EA78120613435A7C20
:10461000987C00021043DA7C120410431B7D1B06B9
:104620001843324B9847324B9A7FF0239B019340BB
:104630001B092D4A52795343984206D9627B281CA4
:10464000E52100232B4CA04748E02B48291C2B4B8D
:104650009847234B1B78012B40D1274B1B7A012B0A
:104660003CD1274B1B78012B38D123480021254B07
:104670009847002832D0027843781B02134382788F
:1046800012041343C278120613435870020A9A7038
:10469000020CDA70000E18715A7C987C00021043EC
:1046A000DA7C120410431B7D1B0618430F4B9847FE
:1046B000041C154B1878154B984784420ED20E4CAB
:1046C000201C134B9847201C0021124B984705E0F3
:1046D000627B281CE6210023064CA04738BDC0465B
:1046E000A809002048090020B8090020018F000017
:1046F000B40A002011490000AC010020417A0000FA
:1047000009000020D57A0000DE090020597400005D
:104710003D450000C57A000030B583B0374B98475F
:10472000EFF3108463425C4172B6BFF35F8F0022E7
:10473000334B1A70334B9A7F334B1B78012B52D17A
:10474000F025AD0195402A09304B1B78002B22D172
:104750002F4B1B79002B08D12E4B1B780F25ED1A00
:1047600055430222294B1A7032E02A490D78691C00
:10477000994209D1264B5D7955430122234B1A708A
:104780002548264B984723E0ED435D195543032206
:104790001E4B1A701CE0032B09D11D4B5D7955434C
:1047A00001221A4B1A701C481C4B984710E0012B31
:1047B00019D1174B19795B79CB18013BDBB20F2B61
:1047C00011D00F25EB1A151C5D4304220F4B1A70F4
:1047D000002D08D0124B187800230093291C0022CA
:1047E000104B114DA847002C05D00122044B1A7024
:1047F000BFF35F8F62B603B030BDC04661500000AA
:1048000008000020B40A0020A809002009000020A8
:10481000B80900203F090020AC0100203D45000000
:10482000DE09002019470000B577000008B5064BE7
:104830001B78012B06D1054B1B78012B02D10448B4
:10484000044B984708BDC046A80900200900002075
:10485000AC0100203D45000008B50248024B9847D6
:1048600008BDC046AC010020E57A0000F8B5234C35
:1048700000260025221C2378022B20D12023381C5F
:1048800098433301102290431843A31E1B780F2234
:104890001A400F2398431043071CAA0707D5184B4B
:1048A0001A7A597A09021143164B98470FE0164AB3
:1048B000137C517C09021943124B984707E0012BE6
:1048C00005D1073A1068EB213A1C104B9847E31FBB
:1048D0000021197059709970D970197159719971B5
:1048E00021706170A170E17021710135EDB2083461
:1048F00001235E40042DBDD1F8BDC046BF09002094
:104900004809002091400000B40A0020D94000006E
:1049100038B5051C00786C7824020443A87800049C
:104920000443E87800060443102020706270A170F0
:10493000E3701A0A22711A0C62711B0EA3710248ED
:10494000291C024B984738BDAC090020417A000071
:10495000F0B5474680B486B0041C037845782D0234
:104960001D4383781B041D43C3781B061D4301AE02
:10497000301C291C1422C14B9847B37B06221A40D5
:10498000062A0FD0BE4A1278002A03D1BD4A1278F7
:10499000002A07D001AB5A7B201CE1210023BA4C2E
:1049A000A04766E101AA0298010A107A00060843AE
:1049B000039E310A127B12061143DA070FD501AAB2
:1049C0009278022A0BD182B2B04EB24207D101AB2B
:1049D0005A7B201CE8210023AB4CA04749E19E07ED
:1049E0001CD501AB9B78022B10D101AB5B78022B5D
:1049F0000CD1A74B1B78012B22D1A64B1A7A5B7ADC
:104A00001B021343984201D1002919D001AB5A7BF4
:104A1000201CE82100239C4CA0472AE101AB5B78D5
:104A2000002B0BD101AB9B78002B09D101AB5A7B3A
:104A3000201CF5210023944CA0471AE1012B03D040
:104A400001AB9B78012B07D101AB5A7B201CE821DD
:104A500000238D4CA0470CE10E232B7001AB5A7B39
:104A60006A7100226A72AA72EA722A73DE7BAA1B3A
:104A70009A325B78022B0DD1931E0736F6B2864828
:104A8000077C417C090239431970013A090A117007
:104A90001A1C29E0032B02D00536F6B224E00820C8
:104AA0004042801884460D36F6B27B4B1978587810
:104AB00000020843997809040843D9780906084395
:104AC0001F795979090239439F793F043943DB79CA
:104AD0001B061943634618700F06000A3843090A7B
:104AE00001339342F7D162466B4B987CD97C090223
:104AF000014301ABD8781B791B020343994208D1CB
:104B000001AB5B78002B10D001AB9B78002B13D14D
:104B100003E001AB5B78002B07D0931E0236F6B2A0
:104B20001970013A090A11701A1C01AB9B78002117
:104B30008C46002B39D001E040218C46022B0ED14F
:104B4000971E0236F6B2B04601A9029B180A0B7AEC
:104B50001B0603433B70013A1B0A137018E0171C35
:104B6000083F0836F6B2B04601AB029E310A187A09
:104B70000006084303990E0A197B090631433B1CC2
:104B800018700E06000A3043090A01339342F7D128
:104B9000BA1E46460236F6B201ABD9781B791B0223
:104BA0000B431370013F1B0A3B703A4FB87C431C08
:104BB000BB74531E187001AB9B7BD80703D4012133
:104BC0006346194302E021216046014301ABDB7BD0
:104BD000662B02D980235B01194301AB98788002D0
:104BE0005B789B0303439BB20B43D11E0B70911E5A
:104BF0001B0A0B7073B2002B34DB043A16706A7414
:104C0000130AAB74130CEB74120E2A7501AB9B7B69
:104C1000990704D501A8211C204B984729E0204B77
:104C200098476C70230AAB70230CEB70230E2B712A
:104C3000194B597F0F394B1E99410231281C012213
:104C4000184B9847002803D10122174B1A7010E027
:104C500001AB5A7B201CE12100230B4CA047134BD6
:104C6000984706E001AB5A7B201CE5210023064C47
:104C7000A04706B004BC9046F0BDC04661A4000049
:104C8000310900203D09002011490000FFFF00000C
:104C9000A809002048090020B40A0020C1450000EE
:104CA00061500000D1910000A909002001500000CE
:104CB00070B584B0011C027843781B0213438278DC
:104CC00012041343C278120613432122B648825CB1
:104CD000002A05D1081CB54B9847B54B984760E1B1
:104CE000B14A10791876547F907F00022043D47F18
:104CF000240420432024145D240620435876040A0B
:104D00009C76040CDC76000E1877107C5870547C6E
:104D1000927C9C70DA70821ED2B2012A42D80022A4
:104D20001A715A719A71DA711A725A729A72DA7227
:104D3000022811D19C48C47C027D120222431A71C0
:104D4000100A587100209871120EDA7100221A723E
:104D50005A729A72DA7230E003282ED1924AD47CC9
:104D6000107D00022043547D24042043947D2406BA
:104D70002043D57D147E24022C43557E2D042C43E4
:104D8000927E120622431871040A5C71040C9C7115
:104D9000000ED8711A72100A5872100C9872120E06
:104DA000DA720AE000229A70DA701A715A719A71F6
:104DB000DA711A725A729A72DA721A7E7D48007823
:104DC00090421ED118795C7924020443987900043A
:104DD0000443D879000604431D7A587A0002284318
:104DE0009D7A2D042843DD7A2D0605437248066816
:104DF000A64206D14068A84203D1081C6B4B9847D5
:104E000086E06C4802701A795C79240214439A791E
:104E100012041443DA79120614431A7A587A0002FB
:104E200010439A7A12041043DA7A12061043624A47
:104E3000146050605C4A507918730024DC731C7451
:104E40005C749C74DC741C755C759C759479D27967
:104E50005C739A73032823D1534A147A507A000260
:104E60002043947A24042043D47A24062043157BDB
:104E7000547B24022C43957B2D042C43D27B1206B9
:104E80002243D873040A1C74040C5C74000E9874DA
:104E9000DA74100A1875100C5875120E9A7516E00F
:104EA000022811D14048047A427A12022243DA736E
:104EB000100A187400205874120E9A740022DA74C2
:104EC0001A755A759A7502E000225A739A73364A17
:104ED000107FD8752120145C5C772224155D232473
:104EE000145D24022C432425555D2D042C432525D7
:104EF000525D120622439A77140ADC77150C20249F
:104F00001D55120E1A5411221A702C482C4B98471A
:104F1000254B1B78DA0642D5234B1B7C022B11D183
:104F200002AB214AD07C117D090201431980517CDA
:104F3000927C12020A430092002000210222214C9E
:104F4000A0472EE0032B22D1174BDA7C197D0902F2
:104F500011435A7D120411439A7D12061143D87DE4
:104F60001A7E12020243587E00040243987E000615
:104F70000243029103925A7C9B7C1B0213430093D1
:104F800000200021032202AB0E4CA04709E00023C1
:104F900000930020002100220A4CA04701E0044BAE
:104FA000984704B070BDC0467409002085780000A1
:104FB000015000002009002028090020AC09002031
:104FC000417A0000413A000008B50A4B1B78002BDB
:104FD0000ED10020084B98470020084B9847002826
:104FE00003D10122034B1A7002E00120024B9847C3
:104FF00008BDC046AA09002099770000A5870000D7
:1050000008B50F4B5B7F0E2B03D80E4A1278052A8A
:1050100005D00F2B13D10C4BDB7C002B0FD10B4B8E
:105020001B78002B0BD10A4B1B78002B05D0094BAA
:105030001878094B9847002801D0084B984708BDBD
:10504000B40A002009000020480900205E09002061
:105050003E090020DD090020DD770000C94F000077
:1050600008B5074B1B78012B09D1064B98478528BB
:1050700005D00120044B98470022014B1A7008BD4F
:10508000AA090020018800009977000008B5164899
:10509000164B98478523002823D11548134B984772
:1050A000852300281DD11348104B984785230028DD
:1050B00017D111480D4B98478523002811D10F486F
:1050C0000A4B9847852300280BD10D48074B98477A
:1050D0008523002805D10B48044B9847031E00D0B8
:1050E0008523181C08BDC046DD0900209D770000FF
:1050F000DA090020DB090020DE090020D8090020A1
:10510000DC090020D909002010B50C4B18780C4C94
:10511000A0470C4B1878A0470B4B1878A0470B4BB7
:105120001878A0470A4B1878A0470A4B1878A04770
:10513000094B1878A047002010BDC046DD090020AB
:1051400079770000DA090020DB090020DE09002061
:10515000D8090020DC090020D909002038B5051C39
:1051600000212B4B19702B4B19702B4B19702B4BAB
:1051700019702B4B19702B4B19700F222A4B1A7078
:105180002A4B19702A4B197001225242D317294811
:1051900002604360284B1970284B98470820284B21
:1051A0009847EFF3108472B6BFF35F8F0022254B50
:1051B0001A70254B9847002C05D10122214B1A70FB
:1051C000BFF35F8F62B6002D21D0204C0025E57320
:1051D0003E235B42A3720723E372002323737823E9
:1051E000637325750123A3732374062363742570E9
:1051F0006570A570E57025716571A571E571012374
:105200005B4223726372124B9847A074E57438BDF9
:10521000A9090020A8090020AA0900203D090020B2
:105220003E090020310900203F0900205D090020CF
:1052300020090020280900205E09002011450000F7
:10524000AD89000008000020095100004809002035
:10525000B1A8000038B50E4B98478524002815D119
:105260000C4B98470C4B984700280FD00B4B984796
:10527000041E0AD101200A4B98470A4B98470A4856
:105280000A4DA8470A48A84700E08524201C38BDDD
:1052900009810000157B0000657700008D5000003B
:1052A0005D5100000150000034090020297A0000FF
:1052B0006409002030B583B00A4B984701A9012347
:1052C0005B420B806D46EB8006355320064CA047B1
:1052D0005020291CA0470120044B9847044B9847B5
:1052E00003B030BD61500000E15700005D51000087
:1052F00001500000F8B5041C037845782D021D43C9
:1053000083781B041D43C3781B061D43174B984726
:105310006D780020164EB047281C431E9841C0B23D
:10532000144B9847071C0120B047281C124B984784
:10533000124B98471248134DA8471348A847134EDD
:10534000301CA847124B9847227863781B021343FE
:10535000A27812041343E278120613435F702022EE
:105360001A70301C211C0B4B9847F8BD615000008F
:1053700099770000A18200005D51000001500000FB
:1053800034090020E57A000064090020AC090020FF
:1053900059480000417A0000F8B5041C0D1C171C88
:1053A0004D2852D01DD8432800D19CE00BD80428AA
:1053B00006D8022800D396E0002800D0DDE092E075
:1053C00042283DD0D9E04A2849D005D8442841D0C8
:1053D000472800D0D1E086E04B2865D04C286AD021
:1053E000CBE0562819D00AD8522869D003D85028C3
:1053F00000D9C2E077E0542800D9BEE073E0592814
:1054000071D004D857286ED058280BD0B5E05A2850
:105410000FD0F02800D0B0E065E00A78604BDA7376
:105420000026ABE009786A785D4B9972DA72002643
:10543000A4E009786A785A4B19735A7300269DE0E4
:105440000A78574B1A74002698E00A78544B9A73DE
:10545000002693E00A78524B5A7400268EE00B78AF
:10546000497809021943AB781B041943EB781B06F2
:1054700019432B796A7912021A43AB791B041A4338
:10548000EB791B061A43464B1970080A5870080C32
:105490009870090ED9701A71110A5971110C99710D
:1054A000120EDA71002669E009786A783C4B1972AD
:1054B0005A72002662E00A78394B9A7400265DE041
:1054C0000B785A1E9341DBB2354AD374002B06D0B9
:1054D000344B98470620344B984700264EE0334B18
:1054E000984700264AE0201C291C314B9847061E8D
:1054F000812E0BD12F4B9847201C291C2C4B9847F1
:10550000061E3BD101222C4B1A7001E0002835D138
:105510002A4B2222995C5C7E187E021C0B1B834264
:1055200000DAD8B2121A01238B40191C01394A4300
:1055300092B21B4B9A72110AD97200280ED0002326
:10554000012519192E1C8E40921992B20133D9B23D
:105550008842F6D8124B9A72120ADA72104B997A74
:10556000DA7A12020A4314214A430B32FF3292B212
:105570009A72120ADA72002600E0F426002F0DD08B
:105580000D4B1B78002B09D0054BDB7C002B05D184
:1055900000200B4B98470022074B1A70301CF8BDB7
:1055A0004809002061500000AD8900000150000052
:1055B0000185000001880000B9010020B40A002024
:1055C000A587000008B5F02800D9ACE08300574A51
:1055D000D3589F46564BDB7B0B700020A4E0222360
:1055E000544AD35C0B7000209EE0081C52490222F2
:1055F000524B9847002097E023234E4AD35C0B7010
:10560000002091E0081C4E4902224C4B9847002094
:105610008AE0474B1B7D0B70002085E0454BDB7F0C
:105620000B70002080E0081C46490222434B98473B
:10563000002079E020233F4AD35C0B70002073E008
:1056400021233C4AD35C0B7000206DE0384B1B7C5F
:105650000B70002068E0374B1B7F0B70002063E06D
:10566000334B5B7C0B7000205EE0081C3649042243
:10567000324B9847002057E02E4B5B7F0B70002089
:1056800052E02C4B9B7F0B7000204DE0081C2849FA
:1056900008222A4B9847002046E0081C2B4902228A
:1056A000264B984700203FE0214B9B7C0B7000204D
:1056B0003AE0204B1B7E0B70002035E01D4B5B7EDB
:1056C0000B70002030E0081C214902221B4B984738
:1056D000002029E0164BDB7C0B70002024E0081C26
:1056E0001C490222154B984700201DE0081C114957
:1056F0000822124B9847002016E00E4BDB7D0B7002
:10570000002011E0081C144904220C4B984700208B
:105710000AE0084BDB7E0B70002005E0054B9B7D0B
:105720000B70002000E0F42008BDC04674C10000EA
:1057300048090020B40A00205209002061A400009A
:1057400054090020C80A0020C00A00205009002087
:10575000C60A0020C40A0020BC0A002038B5051C77
:105760000378447824021C4383781B041C43C378C9
:105770001B061C436078E11C054B98476378A370B7
:105780001E23237060700348291C034B984738BDC3
:10579000C5550000AC090020417A000038B5051C51
:1057A0000378447824021C4383781B041C43C37889
:1057B0001B061C436078A11C0122064B98476378A6
:1057C000A3701F23237060700348291C034B984764
:1057D00038BDC04699530000AC090020417A000052
:1057E00038B5051C0C1C094B1B78012B09D1084B43
:1057F0009847281C211C074B9847041C064B9847C8
:1058000002E0044B9847041C201C38BDAA09002064
:10581000615000000185000001500000072802D8F7
:10582000094B185C0EE0031C403BDBB21F2B04D875
:10583000064B18184038007804E0EF23834280417B
:105840004042C0007047C04638C5000040C5000057
:1058500010B5041C027843781B02134382781204AB
:105860001343C2781206134323221A705970002979
:1058700001D0034B98470348211C034B984710BDA8
:1058800001500000AC090020417A000030B585B01D
:10589000041C284B1B78002B45D1274B1B78002B71
:1058A00041D1264B9847227863781B021343A27894
:1058B00012041343E278120613435A78022A07D1DE
:1058C0001A7959790902114302AA1180022216E0BD
:1058D0001A795979090211439A7912041143DA7934
:1058E00012061143187A5A7A12020243987A000477
:1058F0000243D87A00060243029103920322997868
:10590000DB781B020B4300930120002102AB0C4DFE
:10591000A847002802D00B4B1C6008E0201CE121A6
:10592000094B984703E0201CE121074B984705B03D
:1059300030BDC046310900203D0900206150000003
:10594000413A0000440900205158000008B5074BB7
:105950001B78022B04D1064B1868EB21054B9847A6
:105960000023024A1370044A137008BD3109002055
:105970004409002051580000A909002008B5114B26
:105980009B78002B1CD0104B1878104B98470D4B70
:105990009B78EB21012B06D121230A4AD35C0021FD
:1059A000002B00D1EB210A4B1B78022B03D1094BB2
:1059B0001868094B98470023084A1370044A13706B
:1059C00008BDC04674090020D8090020797700007E
:1059D000310900204409002051580000A909002085
:1059E00008B5094B1B78002B0CD0084B1B78002BFB
:1059F00008D1074B1B78002B04D10022024B1A70F0
:105A0000044B984708BDC0465D0900203D090020B1
:105A10003109002001500000F0B55F4656464D4662
:105A20004446F0B495B0061CAC4B1B78002B74D1E7
:105A30000CA9AB4C2227E25D0F2313400B704720CB
:105A4000A84DA84769462F31E35D1B090B70542010
:105A5000A8472323E25C1207120FA34B1A702423DA
:105A6000E35CD909A14A91730722134000D1BCE23B
:105A70009B482522815C2622845C2722825C1202BC
:105A800022432824045D240422432924005D0006C7
:105A90000243181C964B9847A7E22378012B36D176
:105AA000631E1A78002A32D0013AD2B21A70002A44
:105AB0002DD142464B461A433B01049310239A438F
:105AC000049B1A439446A21E924613780F221A4052
:105AD00093460F2362469A4394465A4663461A43B6
