S0120000434F4F52445F4E4350312E737265632A
S1130000403C0020A91E0000A51E0000A51E000003
S113001000000000000000000000000000000000DC
S1130020000000000000000000000000A51E000009
S11300300000000000000000A51E0000A51E000036
S1130040A51E0000A51E0000A51E0000A51E0000A0
S113005085040000A51E0000A51E0000A51E0000CA
S1130060A51E00007509000085090000950900001F
S1130070A5090000B5090000C5090000A51E00007F
S1130080A51E0000A51E0000751E0000851E0000B0
S1130090951E0000A51E0000A51E0000A51E000060
S11300A0A51E0000A51E0000A51E0000A51E000040
S11300B008B5064B064803331B1A062B00D808BDA7
S11300C0044B002BFBD09847F9E7C04658F90000D1
S11300D058F900000000000008B50748074B1B1A38
S11300E09B10DA0FD318591000D108BD044A002A16
S11300F0FBD09047F9E7C04658F9000058F90000D2
S11301000000000010B5074C2378002B09D1FFF73D
S1130110CFFF054B002B02D0044800E000BF0123B1
S1130120237010BDA00000200000000058F900005A
S113013008B5094B002B03D00848094900E000BF6B
S113014008480368002B03D0074B002B00D09847C6
S1130150FFF7C2FF08BDC0460000000058F90000C8
S1130160A400002058F900000000000010B5002091
S1130170084B9847084CFA218900A047074B1860A0
S1130180FA218900A047064B18600522054B1A6026
S113019010BDC0465118000095CD00000400002099
S11301A00000002010E000E030B5084B1C68084A4D
S11301B000258021490206E0002C04D0546095609B
S11301C013680B42FCD00138F6D230BD0000002089
S11301D010E000E00C4B1B68002B10D1EFF31083F0
S11301E0002B09D172B6BFF35F8F0022074B1A7040
S11301F00122074B1A7002E00022054B1A70024BD1
S11302001A6801321A607047BC0000200800002000
S1130210C0000020084B1A68013A1A601B68002BC2
S113022009D1064B1B78002B05D00122044B1A7010
S1130230BFF35F8F62B67047BC000020C00000208F
S113024008000020F0B5474680B482B001AC012616
S113025066700027A77026701320211C274DA8471D
S1130260274A904680231B039361277066701C20E5
S1130270211CA8476670A77026705220211CA8472D
S11302803E20211CA8473F20211CA8472F20211CC9
S1130290A8471420211CA8478022D202194B9A6136
S11302A0803B8022D2059A61802212069A618022C4
S11302B012029A6180235B034246936127705320A4
S11302C0211CA847104B196A802292030A431A6220
S11302D004220E4B1A806B469E70DF7005236A461B
S11302E01370567030206946094CA0473120694686
S11302F0A04702B004BC9046F0BDC046F104000023
S11303000044004100450041000400400054004204
S1130310451A0000054B1A68D2B202210A431A702A
S11303201A1C13681904FCD47047C0460018004016
S113033000B583B0124B996940220A439A6101A91E
S113034000230B7005200F4B984705200E4B984750
S11303500E4B1A68D2B201210A431A701A1C136890
S11303601904FCD40A4B191C4031002204C38B42EB
S1130370FCD11022074B1A60074B984703B000BD0D
S11303800004004065190000D51800000018004062
S11303901C12002000E100E015030000F0B583B05A
S11303A0051C0C1C01A900234B70CB7063680B70F7
S11303B0237A8B702078154B984700231F2D00D883
S11303C0134B072129408900E07AA27A002A01D040
S11303D008221043EA0892009A18966988400F2769
S11303E08F40BE43311C01439161627A002A06D0DA
S11303F05A690121A9400D1C15435D6104E05A6945
S11304000121A9408A435A6103B0F0BD451A000096
S1130410001800401723002A0FD18B00084A9A586D
S1130420002A04D1191C064BC850002305E01D23E3
S1130430121A501E824152421340181C7047C04683
S11304401C1200201723002907D100231F2800D8DD
S1130450034B01228240DA600023181C7047C04617
S1130460001800401723002907D100231F2800D8B3
S1130470034B012282409A600023181C7047C04637
S11304800018004070B50022164B1A7000231F2676
S1130490154D144C1F2B10D919E0144900E000210C
S11304A00A619B005B59002B00D0984723780133E5
S11304B0DBB223700F2B14D8ECE7321C1A40012155
S11304C091400A1C094909691142E6D1EEE7321C40
S11304D01A40012191400A1C002109691142DED110
S11304E0E4E770BD5C1200201C12002000180040DC
S11304F000B583B001AB80221A700A785A704A782A
S11305009A708A78DA70191C014B984703B000BDC1
S1130510451A000010B5031C4908402099420CD329
S11305200024C91A601C80B28B4201D8041CF8E76D
S11305304020FF2C01D81480002010BD00000000D2
S1130540F0B55F4656464D464446F0B487B0061CA7
S11305500D1C049210AA1078321C424340248A4293
S113056000D9B3E0002B4BD10021321C5E4CA047D4
S113057083462E1C002700200021002200233F2454
S1130580A4460125A846029003916146203903D46C
S113059040468840814605E0202165464C1B404684
S11305A0E040814641466446A1408A46101C191C1D
S11305B080185941021C0B1C5D464C46254202D052
S11305C0424602430B1C9F420CD801D1964209D8E3
S11305D0921BBB415046029D28434946039C21433C
S11305E0029003916546013DAC46CED20298039930
S11305F03C4B3B4A121A8B41120C1B041A4362E017
S11306000022012B5FD14F0FB946CD00AB4600212C
S1130610321C0023344CA047061C0F1C0023012568
S1130620029603979A465046C0B205900021884628
S1130630002200233F24271C203F03D42E1CBE404D
S1130640019604E02020071B291CF94001912E1C6F
S1130650A6400096101C191C80185941021C0B1C42
S11306605F463740BC46019E4F463E4067463E4388
S113067002D02A1C02430B1C039898420BD802D1C7
S11306800299914207D8029E039F921BBB414746A1
S113069000980743B846013CCDD2414652468B1AD6
S11306A0DB08124CA34208D9059A0132D2B2059252
S11306B00126B2445746082FB5D14024059808288E
S11306C004D042031A43049C22800024201C07B057
S11306D03CBC90469946A246AB46F0BDC046C046D7
S11306E00000000001000000F5CE0000FF1F000024
S11306F010B582B0041C0F4B1B78002B01D00029CD
S11307000DD001A90C7013200B4B984713200B4BF1
S11307109847084B5C7001221A70002007E0054BD3
S11307205A781D20141B621E94416442204002B07A
S113073010BDC046C400002065190000D518000093
S1130740444B984233D006D8434B98420DD0434B88
S113075098421BD06FE0424B98424AD0414B98429A
S113076058D0414B984266D132E0012965D0002926
S113077004D0022906D0032906D001E03B4867E0F3
S1130780002065E03A4863E03A4861E0012956D028
S1130790002904D0022906D0032906D001E03648F6
S11307A056E0002054E0354852E0354850E0012935
S11307B047D0002904D0022906D0032906D001E03D
S11307C0304845E0002043E02F4841E02F483FE017
S11307D0012938D0002904D0022906D0032906D0E3
S11307E001E02B4834E0002032E02A4830E02A4877
S11307F02EE0012929D0002904D0022906D003299A
S113080006D001E0254823E0002021E024481FE031
S113081024481DE001291AD0002904D0022906D059
S1130820032906D001E0204812E0002010E01F4810
S11308300EE01F480CE000200AE01E4808E01E48B5
S113084006E01E4804E01E4802E01E4800E01E4880
S11308507047C0460010004200080042000C0042ED
S113086000180042001C004200140042020008006C
S113087002000A0002000B00020010000200120035
S1130880020013000300080003000A0003000B0029
S113089003001000030012000300130005005300BE
S11308A005003E000500520003003E00030018004E
S11308B003001900020009000200110003000900EE
S11308C00300110005003F0003003F0070B586B02F
S11308D00C4A6B4670CA70C332CA32C3009E864249
S11308E006D001239A0069465258824203D100E09F
S11308F00023D8B203E00133062BF3D1002006B065
S113090070BDC0465CEB00007047C046F0B50A4BB2
S11309101B78002B0CD1094F094E0A4D0024DE51DF
S11309205A1914600433182BF9D10122024B1A709E
S11309308000024BC150F0BDC8000020CC00002054
S1130940090900006012002010B582B0041C68463A
S113095005490622054B9847201C054B98476B46D2
S1130960185602B010BDC04674EB000081CF0000E1
S1130970CD08000008B5024B1B680020984708BD4D
S1130980CC00002008B5024B5B680120984708BDE5
S1130990CC00002008B5024B9B680220984708BD94
S11309A0CC00002008B5024BDB680320984708BD43
S11309B0CC00002008B5024B1B690420984708BDF1
S11309C0CC00002008B5024B5B690520984708BDA0
S11309D0CC000020F0B55F4656464D464446F0B480
S11309E089B0071C0D1C141C39600B68980700D4CF
S11309F08DE0916A0391D26A0492236B0593606B34
S1130A0006900026B1461F229046F1B2B30003AA15
S1130A109858002802D1281C8D4B9847411C29D096
S1130A200204120C9446030CDAB24946180603D4A5
S1130A305109C901874BC918404610400B1840336F
S1130A401B789A4680239B465346DB070CD5400807
S1130A50091830310B78DBB2D00702D51B099B464D
S1130A6002E00F2213409B46DC4503D000233B6089
S1130A701C20E5E00136042EC7D11320764B98479D
S1130A80011C23780026012B11D1A06902AA734B03
S1130A909847031C1720002B00D0D1E0EB68DBB291
S1130AA002AA12781C209A4200D0C9E00C26A2683F
S1130AB061680A43E3681A433243237C617C00295A
S1130AC001D080210A43A17C002902D0802189021F
S1130AD00B43E17C002902D0802189000B43217D56
S1130AE0002902D0802189010B4329680220024396
S1130AF08A4208D16A689A4205D123787B71237CA3
S1130B00BB7100209CE000233B601C2098E00B6834
S1130B100520D90700D593E0281C514B9847514B29
S1130B20196A821C01269640321C0A431A6207A9DC
S1130B302426A35D0B701430C0B280464A4B9847FC
S1130B4040464A4B9847A05D0021494B984723787B
S1130B50012B03D12A680C2313432B603E6802AB9C
S1130B6080221A7000225A7001219970DA70A26AE8
S1130B700392E36A0493206B0590616B0691002550
S1130B80E9B2AB0003AA9858002802D1301C304ABD
S1130B909047431C06D069460872000CC0B202A9F3
S1130BA0344A90470135042DEAD123787B71237CA4
S1130BB0BB71A37CFB71237D3B7200226B46DA8000
S1130BC02378012B14D13868254B98471430C0B2D0
S1130BD0214B9847011CA0696A4606321F4B98476F
S1130BE0031C1720002B2BD16B4606331B78337361
S1130BF0A26863681A43E0680243237C617C00298D
S1130C0003D11D490968880301D580210A43A17CC9
S1130C10002902D0802189020B43E17C002902D003
S1130C20802189000B43217D002902D08021890184
S1130C300B4331680A4332607268134373600020C7
S1130C4009B03CBC90469946A246AB46F0BDC046AE
S1130C50410700000044004181190000150500000F
S1130C60CD0800000004004065190000D5180000FC
S1130C70F1060000451A00000020004110B5447937
S1130C801523012C6DD1047A0023002C69D1002A8C
S1130C9058D04B78002B45D003689B69DA070FD4F2
S1130CA00B78D9090022002903D15A09D2012E4C0C
S1130CB012191F210B40012199409161052350E035
S1130CC00B78DC090022002C03D15A09D201264CEE
S1130CD012191F24234001249C405461897803681D
S1130CE09A69D40700D59962C2790023002A38D1C1
S1130CF00268042193690B42FCD0916900234C07DC
S1130D002FD59369590304D593691B0C04210B4314
S1130D1053838379012B02D1936A002321E0936AE0
S1130D2000231EE00B78D9090022002903D15A09B7
S1130D30D2010D4C12191F210B4001219940516120
S1130D4000230EE00B78D9090022002903D15A09A7
S1130D50D201054952181F210B400121994091618C
S1130D600023181C10BDC04600440041F0B55F4686
S1130D7056464D464446F0B491B0051C0C1C161C56
S1130D802960081CAD4B9847021C23680520D9072D
S1130D9000D54BE123681C209F0700D546E1A84BF2
S1130DA0186A911C01278F40391C014319620FA94D
S1130DB02D27F35D0B701432D2B29046101CA14B58
S1130DC098474046A04B9847F05D00219F4B9847B9
S1130DD0F37A6B712423F35CAB712523F35CEB7121
S1130DE0F37E2B72337F6B7229688846081C934B01
S1130DF09847143000226B46DA84328A02928023A8
S1130E00DB019A4221D08023DB019A4204D880235B
S1130E109B019A4211D008E0C023DB01029F9F424C
S1130E200FD080231B029F4203D010270697002770
S1130E300EE00327069700270AE0102706970127EC
S1130E4006E008270697012702E0082706970027EF
S1130E5031680391F268914673690493317E8A463E
S1130E602623F35C9B467368002B13D08022520523
S1130E7093422ED12723F35C002B2ED1376AC0B2C4
S1130E80734B9847011C381C6A462632714B9847AD
S1130E90031C1FE02723F35C002B0AD0069A009260
S1130EA0306AB16A6A4626323B1C6B4FB847031C52
S1130EB010E0316A0791C0B2654B9847011C069A4D
S1130EC0009207986A4626323B1C634FB847031CBE
S1130ED000E00023181E00D0A8E0737E002B02D08F
S1130EE0B37E41468B732A68029FD369002BFCD1E1
S1130EF002976B4626331B88424693814B46039FD9
S1130F003B43049F3B4371680B43029F1F4352467C
S1130F1013021F4359464B071F432723F35C002B3F
S1130F2001D104231F43717E8902337F5B0219437D
S1130F30F27AB37A13431943737F1B0219432423B0
S1130F40F35C5B0419432523F35C1B0419433389C5
S1130F50FF2B0BD0F27E002A03D0A022D204174329
S1130F6002E0802252041743194305E0F37E002B6C
S1130F7002D08023DB041F432C23F35C002B03D11A
S1130F80364B1B689A0301D580231F432A68D36913
S1130F90002BFCD1434659602A68D369002BFCD14D
S1130FA041460F600EAB80221A7000225A70DA702C
S1130FB09A70326B0A92736B0B93B76B0C97F66B48
S1130FC00D9600270EAEF9B2BB000AAA9858002865
S1130FD002D1201C224A9047431C05D03070000CDB
S1130FE0C0B2311C1F4A90470137042FEBD10023B4
S1130FF0EB602B616B61AB61EB612B62AB626B628B
S11310000022EB85AB853023EA543123EA543223A2
S1131010EA543323EA542868084B9847041C1249BD
S1131020124B9847A400124BE550002011B03CBC71
S113103090469946A246AB46F0BDC046CD08000096
S11310400004004065190000D5180000F1060000F6
S11310508119000015050000410500000020004131
S113106041070000451A0000C11100000D090000ED
S11310706012002010B5021C0368C4791C20002CE7
S11310800DD0D26A120C0520002A08D1DA69002A90
S1131090FCD1198502219A690A42FCD0002010BDB6
S11310A010B5031C046882791C20002A36D0DB6A40
S11310B09BB20520002B31D1A3695A072ED5E369D1
S11310C0002BFCD1A3691B0CDBB29A0623D09A0730
S11310D003D5022363831A2020E05A0703D504238F
S11310E063831E201AE0DA0703D5012363831320E8
S11310F014E0DA0606D5A3691B0C1022134363839C
S113110042200BE09A0606D5A3691B0C2022134348
S11311106383412002E0A36A0B80002010BDC04617
S1131120F0B557464E464546E0B482B0061C8846A4
S11311301720002A39D0B3791C20002B35D035680C
S11311409246002704241C48814629E0AA692242C9
S113115004D1012B21D0013B002BF7D16946063184
S113116000230B80301C154A904700281DD17B1C9E
S11311709BB26A46063212884046C25571790129EB
S113118003D1B91C120AC2548BB25246013A92B22C
S11311909246002A03D1002007E0122005E01F1C1C
S11311A0AB692342DAD14B46D0E702B01CBC90466F
S11311B09946A246F0BDC046FFFF0000A110000002
S11311C0F8B58000684BC5582C68E369002BFCD146
S11311D0A36966693602360E1E403123EB5C302269
S11311E0AF5C1F40F10720D5EB6A1B0C1BD0AB6A28
S11311F01A78D2B2591CA9626979012904D15978A3
S113120009020A430233AB62D305DB0D2385EB6A83
S11312101B0C013B9BB2EB85002B06D101232375EC
S11312200223A37501E001232375B20709D5022324
S1131230237500223323EA54FB0702D5281CE968EE
S11312408847720771D5EB6A9BB2002B6BD0A369F8
S11312501B0CDBB2190702D43F22134001E03722F2
S11312601340002B3CD09A0708D51A223223EA54A3
S1131270A269120C0223134363832BE0590708D598
S11312801E223223EA54A269120C042313436383FB
S113129020E0DA0708D513223223EA54A269120C9B
S11312A001231343638315E0D90608D54222322370
S11312B0EA54A269120C1023134363830AE0202228
S11312C01A4207D041223223EA54A269120C202385
S11312D0134363837A0728D5281C6B69984724E055
S11312E0A26AD205D20DD3B2696A0B706B6A591C1B
S11312F069626979012904D1120A5A706B6A01334F
S11313006B62EB6A9BB2013B9BB2AB85002B0CD1A9
S11313100423237500223223EA54BA0705D5281C76
S11313202B69984701E004232375F10607D51023A0
S113133023752376FA0602D5281CEB699847B10673
S113134007D52023237523763A0702D5281CAB69D9
S11313509847310707D5082323752376BA0602D5A3
S11313602B6A281C9847F8BD6012002008B508288D
S113137033D880001B4B1B589F46802000022FE06F
S1131380194B18692CE0194B186A8005800F184B0B
S1131390C340181C24E0144B586921E0124B1B680D
S11313A0022018401CD011491022CB681A42FCD0EC
S11313B00D4B1B685A0712D500200E4B98470A4B59
S11313C09B681B041B0C58430AE0084B1B6D002050
S11313D05A0705D5044BD86802E0002000E006480F
S11313E008BDC0467CEB0000E4000020000800407B
S11313F000127A0081190000006CDC0270B50C4BFD
S11314001C6A0178857840780122104080014026CA
S1131410B44304432A40D00180229443221C024353
S1131420032001400902034802400A431A6270BDC6
S113143000080040FFFCFFFFF0B54F464646C0B42D
S1131440194A946941788C4605780679C7784379B6
S11314509946807801231840800004218C4304437A
S113146060461840C00008218C430443181C3840CF
S113147080014027BC430443181C3040C00180262F
S1131480B4430443072028400002084D2C40044381
S113149049460B4019030648231C03400B43936140
S11314A00CBC90469946F0BD00080040FFF8FFFFD1
S11314B0FFEFFFFF10B5027A9206120C43899B05D9
S11314C09B0D1A43154B5A60818842881143C47995
S11314D0827922430A434178C9010A431A60037896
S11314E0042B0FD1027B9206038A1A43C3891B047F
S11314F00B490B401A43094B9A60196804220A43AA
S11315001A6009E0202B07D1028A044B9A601968FB
S11315108422D2000A431A6010BDC046E4000020B1
S11315200000FF03082846D88000244B1B589F4620
S1131530002041E0224B196A02220A431A62002069
S11315403AE01F4B996902220A439A61002033E072
S11315501B4B1A6992B202210A431A8200202BE023
S1131560174B5A6992B202210A439A82002023E05F
S1131570144B196802220A431A601A68124B1A4063
S11315800F4B9A84191C1022CB681A42FCD00D4AC6
S113159091680B4BD96251689962126892B29A842D
S11315A0002009E0064B596CC9B2022211434422BF
S11315B09954002000E017207047C046A0EB0000BB
S11315C000080040E40000207FFF0000F0B557460B
S11315D04E464546E0B48CB04A4BC222D2009A60D3
S11315E0494A51681E2081430420804601435160CA
S11315F0464A1168C904490E09049869444A0240DC
S11316000A439A610AA80126467086700671072467
S11316100470002291464271C6703E4B98470420E4
S11316203D4FB84705A800254A464280828085710F
S1131630C57104723F23438142460270457042469D
S113164002820473C381354B984704A84570057022
S11316508570334B98470620B847324B984701AC06
S11316606660657006232370257265720120211C53
S11316702D4B9946984701202C4A90469047657017
S113168065720423237020239A4663602672022025
S1131690211CC8470220C047657025726572032368
S11316A02370524662600420211CC8470420C047AE
S11316B026700020211C1E4B984700201D4B984784
S11316C00720B8470F49D022CB681340D02BFBD159
S11316D0194A002313725372937201A901224A60BA
S11316E04B700B724B7207230B7000200E4B984704
S11316F000200E4B98470CB01CBC90469946A2465D
S1131700F0BDC04600080040004000412460800055
S1131710FFFF80FF3914000025150000B5140000F8
S1131720FD1300003D1700006117000011180000B0
S113173065190000D518000000040040064B9969A3
S113174008220A439A610122044B1A70191C0B687F
S11317501342FCD17047C04600040040000C004016
S1131760F8B5061C071C0D782D0205434B78002B99
S113177002D08023DB021D434B7A002B02D080234E
S11317801B031D434C68012C17D9631E1C420FD147
S1131790022C06D90223002201325B009C42FBD8B2
S11317A000E000221702374380235B031D4304E05B
S11317B02702374380239B021D430B7A002B02D060
S11317C080239B031D430E4A13681904FCD40D4B5C
S11317D098470D4B1E700A490B681A04FCD4084B39
S11317E09F601A1C13681904FCD4054B59688022A5
S11317F052020A4015435D60044B9847F8BDC04649
S1131800000C0040D5010000080C00401502000047
S113181010B5041C0A4A13681904FCD4094B9847F0
S1131820094B1C70064A13681904FCD4044B59680C
S1131830802252020A435A60044B984710BDC046A6
S1131840000C0040D5010000040C0040150200000B
S113185070B5041C184A13681904FCD4174B984734
S1131860174B1C70144A13681904FCD4124E706888
S1131870C004C00E134B9847051C114B1C707668AE
S1131880F602F60F104B1C700B4A13681904FCD4B3
S1131890094B9C682402240C0C4B9847002E07D15A
S11318A0012C07D9281C211C094B9847051C01E071
S11318B00134E540281C70BD000C0040D501000037
S11318C0040C00406D130000080C004015020000D9
S11318D095CD000010B5041C064B9847064B1C70B0
S11318E0064B1968090C8022D2010A435A80044B22
S11318F0984710BDD5010000020C0040000C0040C8
S11319001502000010B5041C104B9847104B1C70B6
S1131910104B18680001000F59880F4A0A405A807A
S11319201A68120C0D490A405A80191C8022D201EF
S11319300B681B0C1342FBD1064B01025888064A64
S113194002400A435A80064B984710BDD501000057
S1131950020C0040000C0040FFF0FFFFFFBFFFFF40
S11319601502000010B50C7824020443024B98477A
S1131970A4B2024B5C8010BD05190000000C0040AD
S113198010B5041C064B9847064B1C70064B1C688C
S11319902401240F054B9847201C054B984710BD84
S11319A0D5010000020C0040000C004015020000AC
S11319B05118000030B5D378002B1FD11378802B39
S11319C004D01B0680246402234300E000235478DF
S11319D00225AC430AD19478002C03D18024A402BC
S11319E0234302E0C024E402234341605478013CD1
S11319F0E4B2012C04D8124C234001E041600023DE
S1131A000D042D0CA024E4052C431C4384620D0C0E
S1131A10D02424062C431C438462D478002C0DD19A
S1131A205C0305D59378012B01D1816100E041610C
S1131A305378013BDBB2012B00D8816030BDC04636
S1131A40FFFFFBFF08B5031C0A1CC1090020002985
S1131A5003D15809C001044940181F210B4001213A
S1131A609940024B984708BD00440041B519000055
S1131A707047C04608B5044B9847044B9847044B3D
S1131A809847044B984708BDCD1500004502000057
S1131A90711A00003103000070B584B0011C01AB61
S1131AA00A4A70CA70C3019B83420AD0029C8442D2
S1131AB005D00020039D8D4205D1022002E00120C3
S1131AC000E00020C0B204B070BDC046C4EB00000A
S1131AD0F0B54F464646C0B487B0041C0D1C904672
S1131AE0081C974B98478146964F391C0C3105A822
S1131AF00322954EB047391C103103A80622B04783
S1131B000023A360E3602361636123766376484620
S1131B1082008E4BD450256041468B78082B04D12B
S1131B2017204A46D20700D405E123712B6805200B
S1131B30D90700D5FFE0EB681C20DA0000D5FAE0F5
S1131B402B68990700D5F6E04246137C002B0CD095
S1131B5002A901238B700022CA7040468069087074
S1131B604B704246107D7A4B98474046037F002BCA
S1131B700BD002A901238B700022CA70426A0A703A
S1131B804B70036AD8B2724B9847724B196A484635
S1131B90420003A8125A0A431A6241468B78082B62
S1131BA008D16C4B1A6A48460130400003A9415AD7
S1131BB00A431A6201A9424613780B7005AB4846E2
S1131BC01E5C301C644B9847301C644B984741465C
S1131BD088880B89034388798A78104318434B78A3
S1131BE0002B02D080231B01184321687F22CB895C
S1131BF01B0A9343FBD128804246507B431E9841E5
S1131C008000937B002B01D00123184321687F229D
S1131C10CB891B0A9343FBD1FF232B71002806D0E9
S1131C2021687F22CB891B0A9343FBD16871434609
S1131C30987ADB7A002B01D01023184341460B7BA2
S1131C40002B01D02023184321687F22CB891B0A53
S1131C509343FBD1A87122687F21D3891B0A8B434C
S1131C60FBD12379042B05D0082B48D01720002B57
S1131C7061D128E07F21D3891B0A8B43FBD1282320
S1131C804246D35C2B7421687F22CB891B0A934381
S1131C90FBD129234046C35C2B7521687F22CB8965
S1131CA01B0A9343FBD12A234146CB5C2B76216844
S1131CB07F22CB891B0A9343FBD12B234246D35C5F
S1131CC06B76002037E07F21D3891B0A8B43FBD13D
S1131CD04046038D2B8221687F22CB891B0A9343C4
S1131CE0FBD141464B8D2B8321687F22CB891B0A74
S1131CF09343FBD14246938D6B8300201BE07F21ED
S1131D00D3891B0A8B43FBD143469B6A2B61216811
S1131D107F22CB891B0A9343FBD14046C06AA8614A
S1131D2021687F22CB891B0A9343FBD141460B6B6D
S1131D30EB610020FFE707B00CBC90469946F0BD6C
S1131D40991A0000C4EB000081CF00007812002033
S1131D50451A00000004004065190000D518000071
S1131D6002687F21D3891B0A8B43FBD10379042B9F
S1131D7005D0082B09D00020002B08D102E01069FF
S1131D80C0B204E0106980B201E01069FFE7704757
S1131D9030B504687F25E3891B0AAB43FBD1037983
S1131DA0042B05D0082B14D01720002B19D107E0E1
S1131DB01720012915D8D2B261180A76002010E044
S1131DC0172001290DD892B20C3149000A53002082
S1131DD007E01720012904D8063189000A510020A0
S1131DE0FFE730BD931C9B001950022A04D1027EE8
S1131DF01023134303760CE0032A04D1027E20232C
S1131E001343037605E0012393401A1C037E1A430F
S1131E10027600207047C04638B58000144BC45881
S1131E202368DD682D0C237E1D40637E1D40EA0778
S1131E3005D5201CA3689847012322689373AB0738
S1131E4005D5201CE2689047022322689373EB06B1
S1131E5005D5201C22699047102322689373AB0692
S1131E6005D5201C62699047236820229A7338BDE7
S1131E707812002008B50020014B984708BDC046E1
S1131E80191E000008B50120014B984708BDC04643
S1131E90191E000008B50220014B984708BDC04632
S1131EA0191E0000FEE7C04610B5194B194A9A42A4
S1131EB003D0194B164A9A4204D3184B184A9A4233
S1131EC010D31BE0174B14480330C01A80080130AC
S1131ED0800000230E490F4AD458CC500433834267
S1131EE0FAD1EAE70E4B1A1D0C490331891A890805
S1131EF089005218002102C39342FCD10A4B7F216E
S1131F000A4A8A439A600A4B98470A4B9847FEE765
S1131F100000002058F90000A0000020401C002010
S1131F20A00000200400002000ED00E000000000FC
S1131F3039CF000025C70000F0B5474680B40C1C1B
S1131F40904600280CD1002A0DDD8F18094E0A4D49
S1131F503068211C2B6898470134BC42F8D104E056
S1131F600120404202E0002000E0404604BC9046CC
S1131F70F0BDC0468C12002084120020F0B5474604
S1131F8080B40E1C151C0138022810D8002A11D068
S1131F9000240D4B98460D4F43461868315D3B684D
S1131FA09847002808DB0134A542F5D107E0012059
S1131FB0404205E0002003E00120404200E0201CF4
S1131FC004BC9046F0BDC0468C120020881200204C
S1131FD0064B1B68002B02D1054A044B1A60034AC6
S1131FE0136818181060181C7047C046FC000020C5
S1131FF0403C0020012040427047C04680239B01A2
S11320004B6000207047C046012070470020704795
S113201070B582B0051C0E1C00226B46DA80064C9B
S1132020281C69460631A0470028F9D16B460633BF
S11320301B88337002B070BDA110000070B5061C7F
S11320400D1C034C301C291CA0470028FAD170BD7C
S11320507510000000B583B01348694607310122AA
S1132060124B984772B6BFF35F8F0022104B1A7061
S1132070104B1A7801321A700F4B1B786A46D179CB
S11320800E4AD1549B2B03D100220B4B1A7002E051
S11320900133094A13700122054B1A70BFF35F8F95
S11320A062B603B000BDC0469C01002021110000AF
S11320B008000020D1010020D001002000010020F0
S11320C0F0B591B08023DB05009300230193FF2238
S11320D06846028100228372C372962189010891A5
S11320E001262421465425214654262143542721E0
S11320F043540A932C2143542D21435405930382C2
S1132100C37602760277427613238376427780235E
S11321105B0303932A4B0C932A4B0D9301235B42DD
S11321200E930F93284C294B1C60294A294B1A60A3
S1132130294A2A4B1A60201C29496A46294B984788
S1132140294F3B6898680021284DA8473B68586888
S11321500021A8472568281C254B98471F231840B1
S11321608640244B1E602268D369002BFCD12A6868
S1132170022313432B60144B1B68DA69002AFCD139
S11321805968802252020A435A6001210E4AD171D1
S1132190DA69002AFCD15968802292020A435A6003
S11321A00122094B9A7100201349144B98470422C9
S11321B00B4B9A75802292000E4B1A6011B0F0BD41
S11321C005001B0005001C009C0100208C1200204F
S11321D03D200000881200201120000084120020FD
S11321E0001400426D0D00003C00002061D400008A
S11321F04909000000E100E0552000000D0900003D
S113220010B5114B1B780024002B0ED10F4B1B7AF9
S1132210002B0AD00D4800210D4B9847002803D00D
S11322200C4B9847012400E000240B4B1B7A002B35
S113223008D009480021064B9847002802D0054BD6
S113224098470124201C10BD65130020B8120020FB
S1132250C5A00000355100002013002008B5034834
S1132260034B9847034B984708BDC04668130020AA
S113227029A00000BD70000010B5094B9847041C4C
S113228008480021084B9847002802D0074B98477C
S11322900124074B9847074B9847201C10BDC046A4
S11322A00122000068130020C5A000003551000081
S11322B0D9A40000E99D0000F8B55F4656464D4696
S11322C04446F0B483460E1C151C98460AAB1B7892
S11322D09A460BAB1B7899460020762A5AD89C2044
S11322E02F4B9847071E54D00378447824021C438C
S11322F083781B041C43C3781B061C4303232370ED
S11323005B4663703378A3707178B278E1702271A0
S1132310023BDBB2012B2AD800236371A371E37162
S113232023726372A372E3722373F3783279120215
S11323301A4373791B041A43B3791B061A43F179C0
S1132340337A1B020B43717A09040B43B17A0906F1
S11323500B436271110AA171110CE171120E227208
S113236063721A0AA2721A0CE2721B0E237353468A
S113237063734B46A373E573641B201C9A30414678
S11323802A1C084B98470848391C084B98470120D9
S113239000E000203CBC90469946A246AB46F8BDFE
S11323A0719E000081CF0000B812002041A00000FF
S11323B0F0B5474680B4071C0E1C90461D1C9C209B
S11323C0164A9047011E24D00378447824021C4303
S11323D083781B041C43C3781B061C43022323700D
S11323E067703B0AA3703B0CE3703F0E2771667164
S11323F0330AA371330CE371360E267242466272BD
S11324004246130AA372E5720548064B9847012019
S113241000E0002004BC9046F0BDC046719E000060
S1132420B812002041A0000010B5041C9C200C4BE5
S11324309847011E11D0027843781B021343827817
S113244012041343C2781206134309221A705C70F3
S11324500448054B9847012000E0002010BDC04609
S1132460719E0000B812002041A0000010B5041CA9
S11324709C200C4B9847011E11D0027843781B0214
S11324801343827812041343C278120613430822BA
S11324901A705C700448054B9847012000E0002046
S11324A010BDC046719E0000B812002041A000007B
S11324B070B5051C0E1C9C20104B9847041E1AD0A6
S11324C0281C0F4B9847021C217863781B020B438E
S11324D0A17809040B43E17809060B43062119701E
S11324E05D70981C311C074B98470748211C074B0B
S11324F09847012000E0002070BDC046719E000096
S11325007D77000081CF0000B812002041A00000B8
S1132510F0B54F4680B481460E1C151C1F1C9C2030
S113252011498847011E1BD00378447824021C43B8
S113253083781B041C43C3781B061C430B232370A2
S11325404B466370A670330AE370330C2371360E66
S11325506671A571E7710548054B9847012000E0B5
S1132560002004BC9146F0BD719E0000B81200200A
S113257041A00000F8B55F4656464D464446F0B4C7
S1132580041C8B46151C9A460AAB1B7899460BAB68
S11325901B7898460CAB1F780DAB1E789C20154B0E
S11325A09847011E1ED0027843781B021343827899
S11325B012041343C278120613430D221A705C707E
S11325C0240A9C705A46DA7052465A714A469A71E5
S11325D04246DA711F725E721D710748074B9847B5
S11325E0012000E000203CBC90469946A246AB4640
S11325F0F8BDC046719E0000B812002041A0000042
S113260010B5031C04784078000220439C7824040D
S11326102043DC782406204314240470C1704270E3
S1132620120A82700248191C024B984710BDC0461A
S11326306813002041A0000030B583B00F4B186828
S1132640EB210F4A0F4B984700240F4B1C7069462F
S1132650063101256D420D8050200C4B98470C4BE0
S11326609D72DD721C705C709C70DC701C715C71FE
S11326709C71DC71074B984703B030BDC812002031
S1132680FFFF000001260000A9120020417700008E
S113269000130020096E0000F0B585B0041C037817
S11326A041780902194383781B041943C3781B0634
S11326B0194368460F22804B9847804B1C6068463C
S11326C0C3789A1ED2B2012A05D9201CE8217C4A7B
S11326D07C4B9847EEE0022B05D17B4B82799A72B2
S11326E0C279DA721DE0784B6D46C288018909040B
S11326F011434089AA89120402431970080A5870C8
S1132700080C9870090ED9701A71110A5971110CBC
S11327109971120EDA71022252429A7201225242C5
S1132720DA72502001A9694B9847694B984723787E
S113273065782D021D43A3781B041D43E3781B0613
S11327401D4301232B706C70220AAA70220CEA70BC
S1132750220E2A719822AB546846827B9923EA544C
S11327605C4B1A785978090211439A781204114380
S1132770DA781206114318795A79120202439879C9
S113278000040243DB791B061A432B1C90332E1CD6
S1132790983619701006090A0143120A0133B3422C
S11327A0F7D1FF238E22AB548F22AB546946CB78EA
S11327B0022B0ED12E1C8C36434A917AD37A1B02FB
S11327C00B438C22AB541B0A8D22AB54424F152071
S11327D023E02E1C86363C4B1A78597809021143A3
S11327E09A7812041143DA781206114318795A7947
S11327F012020243987900040243DB791B061A4350
S1132800331C2F1C8E3719701006090A0143120A53
S11328100133BB42F7D1314F1B202E4A917CD37C2C
S11328201B020B43B21E1370721E1B0A1370264A3E
S1132830D37D591CD175F11E0B70731F23211970A0
S1132840331F3A0A1A70063E30706E74330AAB7442
S1132850330CEB74360E2E750420694602311B4E80
S1132860B047071C002069460131B0470743F8B25E
S1132870002818D11A4B197803394B1E99410323A8
S1132880591A281C0122174B9847002803D101220A
S1132890154B1A700EE0201CE121094A094B984798
S11328A0124B984706E0201CE121054A054B984746
S11328B00E4B984705B0F0BD81CF0000C812002030
S11328C0FFFF0000012600000013002041770000F4
S11328D0696E00001815002023C8000023CC0000F6
S11328E0C21200203DBA000065130020096E0000EA
S11328F038B5011C027843781B0213438278120412
S11329001343C27812061343194A127C002A02D1D7
S1132910184B98472AE0184AD07C147D24020443BB
S1132920507D00040443907D00060443D57D107E51
S113293000022843557E2D042843957E2D06284306
S11329405C70250A9D70250CDD70240E1C71587175
S1132950040A9C71040CDC71000E18722220125CB3
S11329605A7213221A700548054B984738BDC04661
S113297000130020859E00003013002068130020FF
S113298041A00000F8B584460378447824021C432F
S113299083781B041C43C3781B061C436178A2780C
S11329A012020A43E17809040A43217909060A4319
S11329B06179A5792D020D43E17909040D43237A48
S11329C01B061D43617AA37A1B020B43E07A3B4941
S11329D009780239C9B2012903D96046384B9847AE
S11329E06BE0022121709626A155972163541B0A9E
S11329F0982163549923E054324B19785F783F024D
S1132A000F43997809040F43D97809060F431979BC
S1132A105E7936020E43997909040E43DB791B066D
S1132A201E43231C8E33201C96301F7031063F0A30
S1132A300F43360A01338342F7D1231C8633211C0A
S1132A408E311A702E06120A32432D0A01338B423C
S1132A50F7D11C4A917CD37C1B020B438422A354E0
S1132A601B0A8522A354184DEB7D5A1CEA75832258
S1132A70A35463228123E254CC228223E2541B22F6
S1132A808023E254231C803363741A0AA2741A0C40
S1132A90E2741B0E2375002323720C4861460C4B11
S1132AA098472A7A6B7AA271E3710A4B18780A4B19
S1132AB09847002801D1094B9847F8BD64130020BA
S1132AC0859E000018150020001300209412002099
S1132AD041A00000E8130020DD9D0000A96700006C
S1132AE070B582B02423314AD55C314B9847002D10
S1132AF03BD1304C5320211C2F4B98472378201C6A
S1132B002238627812021A432C4BC17C047D2402C1
S1132B100C43417D09040C43817D09060C43C67DA9
S1132B20017E09023143467E36043143807E00062D
S1132B3001431C70200A5870200C9870240EDC701D
S1132B401971080A5871080C9871090ED97101217C
S1132B501B4B19701B4B002119701B4B1B78032B4B
S1132B601AD10221184B197016E00024154B1C7061
S1132B7069460631012676420E8050200E4B984756
S1132B800E4B9E72DE721C705C709C70DC701C714B
S1132B905C719C71DC710D4A0D4B1868291C0D4B3E
S1132BA098470D4B984702B070BDC04630130020C3
S1132BB0859E00005213002041770000001300207E
S1132BC064130020A9120020C2120020FFFF00009D
S1132BD0C812002001260000096E000030B583B041
S1132BE0124B9A7BD97B09020D1C154300230093D9
S1132BF00020012100220E4CA047002806D10D4BD5
S1132C001868E1210C4A0D4B98470DE00C4B1878DD
S1132C1029010023009300220A4B0B4CA0470028F3
S1132C2002D00020074B984703B030BD00130020AA
S1132C30FD450000C8120020FFFF0000012600002F
S1132C40E913002039260000B59D000010B5104B93
S1132C501C78062C19D8437C817C09021943C37C57
S1132C601B041943037D1B0619438B781B079B0F19
S1132C70022B0AD1074B1868023818600631022269
S1132C80054B98470134024B1C70002010BDC04610
S1132C90D8010020D401002081CF000010B5104BD2
S1132CA01C78062C19D8437C817C09021943C37C07
S1132CB01B041943037D1B0619438B781B079B0FC9
S1132CC0032B0AD1074B186808381860063108220C
S1132CD0054B98470134024B1C70002010BDC046C0
S1132CE0D8010020D401002081CF000008B5034B97
S1132CF098470C22024B1A7008BDC046096E0000AA
S1132D0009000020F0B55F4656464D464446F0B4EF
S1132D1085B0061C784B1A781A6000221A710B22AF
S1132D201A70764B9A7C002A0AD0734D9A35AD1AE4
S1132D30141C0D34E4B2281C7149724B984702E00C
S1132D406D4D9A350D24704B1B7A002B2AD06F4899
S1132D50804605606E4F00239B463B706D4B02938B
S1132D6069498A46081C02A96B4B994698473878EA
S1132D70019059463970694B0293504602A9C847DD
S1132D803B7840460268013A0198010119431170E9
S1132D908200D3185B00DBB23B70E418E4B2DB437F
S1132DA0ED1802E0013D00232B705D4B9847281C71
S1132DB05C4B98476F1E002803D00419E4B2C74344
S1132DC0EF19594A917F0901584B1B781B020B4399
S1132DD0517F0B43127F002A02D0802252011343F9
S1132DE0534A1278032A02D18022D2011343434A60
S1132DF0127C002A02D0802212021343BA1E1370DE
S1132E007A1E1B0A1370484A117C537C1B020B4325
S1132E10484A934223D13A1C0A3A0634E4B2424B5C
S1132E2019785D782D020D43997809040D43D978FA
S1132E3009060D4318795979090201439879000468
S1132E400143DB791B061943131C023F1D7008065E
S1132E502D0A0543090A0133BB42F7D107E03A1FA3
S1132E601370033F1B0A3B7080231B0201E0C02345
S1132E701B022D48857CC17C09022943901E0170E8
S1132E80501E090A01701D48C17C4D1CC574D01E1A
S1132E900170274909780239C9B2012909D82249A0
S1132EA0497F0E2905D82449097A002901D0102127
S1132EB00B43511F0B70111F1B0A0B70063A147041
S1132EC00D4B1102187C01431961120E1A75002E64
S1132ED00BD1181C1B78036000230371022100220C
S1132EE0164B98470122164B1A7005B03CBC90460D
S1132EF09946A246AB46F0BDDC0100200013002039
S1132F00CC12002081CF000094120020D4010020B4
S1132F10D80100209D2C0000D5A000004D2C0000FD
S1132F20C1580000D959000018150020C312002010
S1132F3064130020FEFF0000AC1200203DBA000024
S1132F406513002008B5034B98470120024B9847AE
S1132F5008BDC046696E0000052D000008B5054B8C
S1132F609847054B5B7F0F2B02D10020034B9847FA
S1132F7008BDC046859E000018150020052D0000E0
S1132F8010B519480021194B984700282AD0037816
S1132F90447824021C4383781B041C43C3781B0617
S1132FA01C436070030AA370030CE370000E2071CD
S1132FB0201C012100220E4B9847002803D1012236
S1132FC00C4B1A700EE06378A07800021843E37883
S1132FD01B04184323791B0618436279E12100235B
S1132FE0054CA04710BDC046AC120020C5A000008F
S1132FF03DBA000065130020CD630000F0B54F46D4
S11330004646C0B485B03F4B5B7F0E2B75D83E4B14
S11330101B78002B02D13D483D4B9847394B5A7FD2
S1133020F025AD0195401A7B5E7B360216439A7BF0
S113303012041643DB7B1B061E433601AE19354BC7
S11330409946354B9846354F74194B4618780023EA
S11330500093211C01224346B847002801D0261CB6
S1133060F2E700222E4B1A702E4B18782E4B9847FD
S113307036090396482003A92C4B98472C4BE41897
S11330802C4B98462C4F254E43461878002200922C
S1133090211C01223B1CB04764190028F4D1194BB0
S11330A09A7F5B7F93420AD9244B1878F0218901D7
S11330B09140002300930022214B184CA047214B40
S11330C01B780E2B0FD8174A107801330D4A927FC4
S11330D0F0218901914009095943002300930022FA
S11330E0194B0E4CA047084B1B78002B05D1174BEE
S11330F01B7A002B01D0164B984705B00CBC9046A8
S11331009946F0BD18150020C1120020DC010020F2
S113311085BC0000EF130020FD2F0000B59D0000CA
S113312009000020F1130020799D00004177000080
S1133130E0FCFFFFED130020452F0000EB130020FF
S1133140ED2C0000C31200207D600000AC120020B2
S1133150812F000000B583B00120104B984701A8CF
S11331600F4B984701990A090E4B597FF0239B0096
S11331708B409A4203D9D31A1B011B0904E00A4964
S11331805218D31A1B011B090193482001A9074BAC
S113319098470020064B984703B000BD052D00005A
S11331A0059E000018150020FFFFFF0F4177000067
S11331B0FD2F0000F0B58BB0061C03784478240280
S11331C01C4383781B041C43C3781B061C4307ADB4
S11331D063782B70A378E27812021A4312024A4BE6
S11331E0079919400A430792227961790902114328
S11331F0A27912041143E27912061143207A627A09
S113320012020243A07A00040243E07A0006024359
S1133210E970090AE879000601430891EA71120A83
S1133220E97A09060A430992217960790002084380
S1133230A17909040843E17909060843277A617AE8
S113324009023943A77A3F043943E77A3F063943F1
S1133250E870000AEF793F0638430890E971090ADB
S1133260120E12061143099104A9227B0A70607B95
S1133270A27B1202024312020498034013430493F4
S1133280E37B227C12021A43637C1B041A43A37C53
S11332901B061A43E07C237D1B020343607D00046C
S11332A00343A07D00060343CA70120AC8790006CE
S11332B002434A60CB711B0ACA7A120613438B601D
S11332C0627FA07FE37F1B0203432020205C000475
S11332D003432120205C00060343E07D0090207E10
S11332E00190677EA07E00023843E77E3F043843A6
S11332F0247F240620430290281C044CA047301C41
S1133300034B98470BB0F0BDFF0000FFA1C80000BD
S1133310859E000038B5041C027843781B021343D1
S1133320827812041343C2781206134358789978AA
S1133330DD781A7912022A435D792D042A439B7998
S11333401B061A43024B9847201C024B984738BD72
S113335029C80000859E000010B5041C027843783B
S11333601B021343827812041343C27812061343D8
S113337058789978024B9847201C024B984710BD07
S113338005C90000859E000010B5041C027843782E
S11333901B021343827812041343C27812061343A8
S11333A05A78987800021043D978034B9847201C28
S11333B0024B984710BDC04609C90000859E000015
S11333C030B583B0041C037845782D021D438378FF
S11333D01B041D43C3781B061D43691C6846082251
S11333E0054B98476A7A00980199044B9847201C2A
S11333F0034B984703B030BD81CF00003DC90000A6
S1133400859E0000F0B583B0051C0378447824023F
S11334101C4383781B041C43C3781B061C4360783D
S1133420A11CE27D267E637E1B023343A67E360406
S11334303343E67E36063343267F0096677FA67FB6
S113344036023E43E77F3F043E432027E45D2406E3
S113345034430194034CA047281C034B984703B002
S1133460F0BDC046E1C90000859E000070B586B07D
S1133470041C027843781B0213438278120413431A
S1133480C278120613435A7898780002104303A9AD
S113349000022E4A039D154028430390D8780870F3
S11334A018795D792D020543987900040543D8798C
S11334B0000605431E7A587A000230439E7A360489
S11334C03043DE7A36063043CD702D0ACE79360687
S11334D035430495C871000ACD7A2D06284305901A
S11334E05D789878000228430002009D2A40024338
S11334F000921A7B6E4632705A7B987B000210430E
S1133500DA7B120410431A7C120610435D7C9A7C09
S113351012022A43DD7C2D042A431D7D2D062A43F5
S1133520F070000AF5792D0628430190F271120A11
S1133530F07A0006024302925A7D081C6946044B45
S11335409847201C034B984706B070BDFF0000FF4E
S1133550E5C90000859E000030B585B0041C0278E2
S113356043781B021343827812041343C278120671
S1133570134301A99A780A70DD7818790002284368
S11335800002164A019D2A40024301925A79987911
S113359000021043DA79120410431A7A1206104317
S11335A05D7A9A7A12022A43DD7A2D042A431D7B1E
S11335B02D062A43C870000ACD792D062843486099
S11335C0CA71120AC87A000602438A605878044B0A
S11335D09847201C034B984705B030BDFF0000FFFF
S11335E011CA0000859E000010B5041C02784378BF
S11335F01B021343827812041343C2781206134346
S11336005A78987800021043DA78120410431A7931
S1133610120610435A79997909021143DA7912048E
S113362011431A7A120611435A7A034B9847201C05
S1133630024B984710BDC04615CA0000859E000085
S113364010B5041C0378427812021A4383781B04D1
S11336501A43C3781B061A43507891780332034BFC
S11336609847201C024B984710BDC04619CA000059
S1133670859E000010B5041C027843781B02134396
S1133680827812041343C278120613435A78987846
S113369000021043DA78120410431A791206104318
S11336A05A79997909021143DA79120411431B7A80
S11336B01B061943024B9847201C024B984710BD28
S11336C095CA0000859E000010B5041C027843785A
S11336D01B021343827812041343C2781206134365
S11336E05878034B9847201C024B984710BDC0469E
S11336F099CA0000859E000010B5041C0278437826
S11337001B021343827812041343C2781206134334
S11337105878034B9847201C024B984710BDC0466D
S11337209DCA0000859E000010B5041C02784378F1
S11337301B021343827812041343C2781206134304
S11337405878034B9847201C024B984710BDC0463D
S1133750BDCA0000859E000070B582B0051C0378C8
S1133760447824021C4383781B041C43C3781B063F
S11337701C436078A178E278267963791B0233438D
S1133780A67936043343E67936063343267A00961F
S113379009340194034CA047281C034B984702B0FA
S11337A070BDC046C1CA0000859E000010B5041C4F
S11337B0027843781B021343827812041343C278BD
S11337C01206134358789978024B9847201C024BF1
S11337D0984710BDF9CA0000859E000010B5041C6E
S11337E0027843781B021343827812041343C2788D
S11337F0120613435878034B9847201C024B9847F2
S113380010BDC04695CB0000859E000010B502781F
S113381043781B021343827812041343C2781206BE
S1133820134358789A78D978090211431A795B7945
S1133830014CA04710BDC04615CC000010B5041CB7
S1133840027843781B021343827812041343C2782C
S11338501206134358789978024B9847201C024B60
S1133860984710BD0DC90000859E000010B5041CCA
S1133870027843781B021343827812041343C278FC
S1133880120613435A78987800021043D978034BF0
S11338909847201C024B984710BDC04611C9000030
S11338A0859E0000F0B583B0021C464B19785D7804
S11338B02D020D43A90B2C05A40F0020002C36D09B
S11338C0507816789E71D871022C0FD1002018728E
S11338D058729872D872187358739873D873D078D2
S11338E096781E7258720432042020E0931C032C34
S11338F01BD10023D01880786E4698550133082BCD
S1133900F8D1009E01982F4B1E72370A5F72370C54
S11339109F72360EDE721873060A5E73060C9E736F
S1133920000ED8730A320A2001E01A1C0220002972
S11339303ED06B0608D4234B557816785E749D747C
S113394002320230C0B204E01E4B9E79DD795E740F
S11339509D74022910D11B4B0025DD741D755D7506
S11339609D75DD751D765D769D7655781278DA74D1
S11339701D750230C0B21BE0032919D10023D55CA8
S11339806E469D550133082BF9D1009D019A0D4BCC
S1133990DD742E0A1E752E0C5E752D0E9D75DA755E
S11339A0150A1D76150C5D76120E9A760830C0B293
S11339B0044BDD78053D2D1A21229D5419745C7148
S11339C003B0F0BD3013002008B523230F4AD35CA5
S11339D05A0619D500280BD10C4B587C9A7C12023C
S11339E00B4B997CDB7C1B0202430B439A4208D0AD
S11339F0064B597C9B7C1B02064A12880B439A4255
S1133A0002D1EE20044B984708BDC0463013002075
S1133A10181500201C130020A592000070B5232364
S1133A207D4AD35C5A0600D4F5E000280BD17A4BCA
S1133A30587C9A7C1202794B997CDB7C1B020243F2
S1133A400B439A4209D0744B597C9B7C1B02744AE9
S1133A5012880B439A4200D0DDE06F4BD87C1A7D6C
S1133A601202704B997ADB7A1B0202430B439A428F
S1133A7000D1D0E0684B197D090201435A7D12043C
S1133A8011439A7D12061143DA7D1D7E2D021543E2
S1133A905A7E120415439B7E1B061D43614B187806
S1133AA05A7812020243987800040243D878000638
S1133AB002431C795879000220439C792404204352
S1133AC0DB791B061843914202D1854200D1A2E062
S1133AD09C20554B9847051E00D19CE00378447800
S1133AE024021C4383781B041C43C3781B061C4319
S1133AF0052323706070020AA270020CE270020EA9
S1133B0022719922A354454B1A785978090211431A
S1133B109A7812041143DA781206114318795A7903
S1133B2012020243987900040243DB791B061A430C
S1133B30231C9133261C993619701006090A014377
S1133B40120A0133B342F7D1364B1A785978090275
S1133B5011439A7812041143DA7812061143187942
S1133B605A7912020243987900040243DB791B0656
S1133B701A43231C8933261C913619701006090A2E
S1133B800143120A0133B342F7D1244A917CD37C16
S1133B901B020B43872163541B0A88216354214968
S1133BA0CB7D581CC8758621635463218423E1545A
S1133BB0CC218523E15418218323E154231C83332E
S1133BC06374190AA174190CE1741B0E2375537FD5
S1133BD00F2B12D0154B1B78002B06D1144B1978E0
S1133BE003394B425941023108E0013BDBB2002169
S1133BF001229A424941023100E00221201C0122A3
S1133C000C4B9847002803D101220B4B1A7002E099
S1133C10281C0A4B984770BD30130020181500204B
S1133C201C13002000130020719E00006413002068
S1133C30C21200203DBA000065130020859E0000DA
S1133C40F0B557464E464546E0B484B0051C0378AB
S1133C50447824021C4383781B041C43C3781B064A
S1133C601C43637CA17C09021943E27C12041143C6
S1133C70227D120611430A78D14BDA708A185278E1
S1133C801A77617CA27C12020A43E17C09040A438C
S1133C90217D09060A4397783F0251780F43BEB24B
S1133CA01E70310A5970101D8046D2781A71C54BA6
S1133CB09847310700D505E1804407233B40C04ABB
S1133CC09370032B16D143461A78BD4BDA76617B89
S1133CD0A27B12020A43E17B09040A43217C090600
S1133CE00A435A77110A9977110CD977120E2021B9
S1133CF05A54A4E0627BA77B3F021743E27B120481
S1133D001743227C12061743AD4A5777390A917735
S1133D10390CD1773F0E20215754012B70D0002B42
S1133D2003D0032B00D0CDE089E0A74E301C4146E0
S1133D300222A64B98474746BB78B370072213402C
S1133D400322002B13D0F8789D4A25215054414674
S1133D500431262011540E0A272016540E0C282054
S1133D601654090E292011545A009A180432531C6F
S1133D704046825C2A21924842540721114052064F
S1133D80520F101C084316D08D4EB2464746FE18FB
S1133D902B275046C655370A2C20814650464844A6
S1133DA00770370C2D208146504648440770360E64
S1133DB02E275046C655002902D049005B18DBB2B5
S1133DC0002A02D0D2009B18DBB221227C49895CF4
S1133DD0994210D97A4AC91A2F20115443443021E8
S1133DE05354180A31215054180C322150541B0ECC
S1133DF03321535460E300212F23714AD1545BE3F0
S1133E0021236F4AD35C002B14D0752B02D9762161
S1133E102123D1546A4B2222414699544246110A25
S1133E20232299544646310C24229954310E2522DA
S1133E30995441E300212123614AD1543CE3604B6E
S1133E40DA7E092A3ED89300614AD3589F464746F2
S1133E50797822235A4AD1542EE35B4E41460131EC
S1133E60301C0222594B98474046C378B37023E371
S1133E70424651782223524AD1541DE3524F4146BF
S1133E800131381C0222514B99469847B81C4146CF
S1133E9003310222C847404643793B71781D4146AD
S1133EA006310222C847F10400D405E34246117AE0
S1133EB02923434AD154FFE2434659782223404AF6
S1133EC0D154F9E2281C434B9847FBE23C4B9B78C6
S1133ED0032B0AD13A4BDB7E042B01D0072B04D1F0
S1133EE03D48291C3D4B9847ECE23D4B1B78012B88
S1133EF000D1C0E2002B04D0DBB2032B00D9D0E206
S1133F0080E2384B1B78002B00D0ECE1364B1A785A
S1133F10022A4AD90023032A00D0C7E2284B9B78FF
S1133F20012B38D0002B3BD0032B00D0D3E1244B02
S1133F30DA7E092A00D9D0E193002C4AD3589F464F
S1133F40281C2B4B98470123B0E2281C294B984787
S1133F500123ABE2284B1B7A002B04D0281C274BEF
S1133F6098470123A2E2264B984700239EE2281C8F
S1133F70244B9847012399E2281C234B984701239B
S1133F8094E2EE20214B984700238FE2281C204B1B
S1133F90984701238AE2281C1E4B9847012385E297
S1133FA000201D4B9847002380E2054B9B78012B92
S1133FB000D18BE1002B31D0032B00D14CE18EE1F9
S1133FC030130020A53800005213002081CF0000D8
S1133FD0DCEB0000859E00002013002041A00000BF
S1133FE0A9120020C11200206413002004EC000078
S1133FF0F1280000FD4E000094120020E54A000064
S1134000DD480000217200005D2F0000A592000031
S1134010355800000D640000C9390000D04B1B7DE9
S1134020002B04D0002A02D00020CE4B9847CE4B60
S11340305E7C997C0902CD4B987CDA7C1202314378
S113404002430023914200D030E2C74B1A7C022A7B
S11340500CD1D87C1A7D1202C14B997ADB7A1B02EF
S113406002430B439A4235D000231FE20023032A64
S113407000D01BE2BC4BDA7C197D090211435A7D46
S113408012040A43987D00061043D97D1A7E120259
S11340900A43597E090411439A7E12060A43B04B1F
S11340A01E785978090231439E7836040E43D97834
S11340B0090631431E795F793F0237439E793604FE
S11340C03E43DB791B063343884200D0BEE09A426C
S11340D000D0BBE0627BA37B1B021343E27B120490
S11340E01A43237C1B0613431B090393482003A98B
S11340F09F4B98479F4B1B789A1ED2B2012A7ED8B9
S1134100281C9D4B9847994B5B7F0E2B03D8F024BA
S1134110A4009C4001E0F024A400984B1878984B2C
S11341209847924EB046954F964881460399621837
S11341301201120903924646737F02330D219940FE
S11341408A4203D9511A0901090904E0511A8E4817
S1134150091809010909387809010023009301228B
S11341604B468A4EB0470028E0D1894B1B78012B7F
S113417029D10022874B1A70874B98470620874B1A
S113418098477A4A937F527F9A4209D9844A107891
S1134190F0218901994000220092824B7B4CA04778
S11341A0814B1B780E2B0ED8804A107801336F4A4E
S11341B0927FF0218901914009095943002200921C
S11341C07B4B724CA0477B4B9847714B1B78022B5F
S11341D03ED0794B1A780123002A00D066E1774B50
S11341E01A780123002A00D060E1754B1A78012364
S11341F0002A00D05AE1734B9847012356E1012B62
S11342001FD1281C5C4B984700225A4B1A70604BF4
S11342101B78022B1ED0684B1A780123002A00D089
S113422044E1664B1A780123002A00D03EE1644B36
S11342301A780123002A00D038E1624B9847012301
S113424034E1281C604B984701232FE100232DE122
S113425001232BE1012329E1434BD97E082940D8CE
S11342608B005A49CB589F46281C594B9847484BBA
S11342701A780123012A00D018E1564B98470123EC
S113428014E1281C544B984701230FE10023022A10
S113429000D00BE1281C514B9847012306E1281C50
S11342A04F4B9847012301E14E4B1B7A002B04D05E
S11342B0281C4D4B98470123F8E04C4B98470023AA
S11342C0F4E0281C4A4B98470123EFE0281C494B93
S11342D098470123EAE00023E8E00023E6E0002316
S11342E0E4E00023E2E0032B22D0042B01D0022BD4
S11342F033D11D4B9A780023002A00D0D6E0244BFA
S11343001B78032B02D101203B4B9847144B1B7D98
S1134310002B08D01E4B1B78013BDBB2012B02D8CB
S11343200120104B9847281C134B98470123BDE0EC
S11343300D4B9A780023032A00D0B7E00A4BDA7EAB
S11343400023082A00D0B1E02C4B18780C4B984776
S1134350281C2B4B98470123A8E00023A6E0C04665
S1134360001300201D3A000030130020181500200F
S113437041770000C212002091790000F013002060
S1134380799D00006D920000FFFFFF0FB59D0000B6
S11343906413002009000020696E000001B20000CF
S11343A0EB1300208D920000C3120020F1130020B3
S11343B07D6000004D930000C1120020A91200206E
S11343C01A130020096E0000859E00002CEC0000EA
S11343D0FD4E00002D710000819400005D2F00004F
S11343E0F128000094120020E54A0000DD48000096
S11343F0217200000D640000C9390000EE13002092
S1134400358F0000324B9847324B9B78012B2ED0CE
S1134410032B48D12F4BDA7E082A46D893002E4A24
S1134420D3589F46281C2D4B98474BE0281C2C4BF7
S113443098472C4B984745E02B4B1B7A002B03D015
S1134440281C2A4B98473DE0294B984730E0281C0C
S1134450284B984736E0284B1B78022B28D1281C80
S1134460264B98472EE0281C254B98472AE0281C09
S1134470244B984726E0174B9B78032B0BD1154B05
S1134480DB7E022B14D1204B1878204B9847281C34
S11344901F4B984716E0012B0AD1281C194B98474B
S11344A010E0002302E0002300E00023002B09D1E8
S11344B0281C184B984705E0174B1B78002B00D09D
S11344C004E512E504B01CBC90469946A246F0BD32
S11344D0F57800003013002050EC0000F1280000B3
S11344E0FD4E00002D71000094120020E54A0000EA
S11344F0DD48000021720000641300205D2F0000DD
S1134500819400000D640000E9130020799D0000EF
S1134510E12A0000859E00006513002008B50023F1
S113452003704378817809021943C3781B04194343
S113453003791B06194302D00148024B984708BD72
S11345402013002041A0000010B584B0041C02A870
S11345500822144B9847237A0020002B20D1637C37
S1134560A17C09021943E37C1B041943237D1B0628
S113457019438B781B079B0F032B11D10023CA18F7
S1134580927968461A540133082BF8D10298009A9C
S11345905040039B019A5340184343425841C0B2D0
S11345A004B010BD81CF000010B582B0041C684671
S11345B006300222104B9847237A0020002B19D191
S11345C0627CA37C1B021343E27C12041343227D0E
S11345D0120613439A781207920F022A0AD1D87945
S11345E000029A796B4606331B881043181A43421B
S11345F05841C0B202B010BD81CF0000F8B55F468B
S113460056464D464446F0B4051C0C1C904699464B
S11346100AAB1B889A469C20A54B9847071E00D1DD
S11346203EE10378467836021E4383781B041E431A
S1134630C3781B061E43002D02D00423337001E00F
S11346400C23337077703B0AB3703B0CF3703B0E52
S1134650337104229923F254964B1A7C5B7C1B021F
S113466013439A1C92B2012A01D9002C22D0301C87
S11346709130904B1A785D782D0215439A78120484
S11346801543DA78120615431A795C792402144327
S11346909A7912041443DB791B061C43011C321C57
S11346A099320D7023062D0A1D43240A01319142CB
S11346B0F7D109E0301C97309722B3541B0A982293
S11346C0B3547D4B0C2501E07C4B12254146002957
S11346D011D078498C7CCA7C1202224352450AD0FC
S11346E0811E0235EDB20A700138120A0270081CEC
S11346F00022944603E0402213430124A446414689
S113470002290ED1802212011A439046831E4A4682
S11347101178527812020A431A700138120A027090
S11347206BE0032929D1C02212011A439046031CCD
S1134730083B0635EDB249460A784C782402144306
S11347408A7812041443CA78120614430A79497900
S1134750090211434A469279120411434A46D27916
S1134760120611431A1C814614700806240A0443D5
S1134770090A01324A45F7D13FE051498C7ACA7A95
S1134780120222434F498A4209D080210901194368
S11347908846831E1A700138120A02702DE0C02266
S11347A012011A439046031C083B0635EDB2444CF3
S11347B02178647824020C43414A917809040C431B
S11347C0D17809060C4311795279120211438B46B0
S11347D03B49897909045A460A4391463849CA79BA
S11347E01206494611431A1C814614700806240A0D
S11347F00443090A01324A45F7D16246002A0AD025
S11348002C49887CCA7C12020243991E0A70591EE4
S1134810120A0A7006E09A1E544614705A1E504634
S1134820010A11702649CA7D501CC875D91E0A7028
S11348305A1F414611701A1F4446210A1170063B43
S11348401D7073741A0AB2741A0CF2741B0E337549
S1134850184B5B7F0F2B12D01B4B1B78002B06D100
S11348601A4B197803394B425941023108E0013B94
S1134870DBB2002101229A424941023100E00221C7
S1134880301C0122124B9847002804D10122114BFD
S11348901A70012005E0381C0F4B9847002000E0F7
S11348A000203CBC90469946A246AB46F8BDC046A3
S11348B0719E0000181500202380000023C0000012
S11348C000130020FEFF000064130020C212002029
S11348D03DBA000065130020859E0000F0B55746E0
S11348E04E464546E0B49C20754B9847041E00D1C3
S11348F0E1E0027843781B021343827812041343E5
S1134900C278120613430D221A705870020A9A7064
S1134910020CDA70020E1A7100221A726949087CBC
S11349204A7C12020243911C89B2012923D89220A5
S1134930C0188446634A117850780002084391787D
S113494009040843D1780906084315795179090205
S1134950294395792D042943D279120611436246DD
S11349601E1C9A3610700D06000A2843090A0132EB
S1134970B242F7D10CE09821C9188C4698215A54B8
S1134980120A99215A548022120290460B2703E0FE
S1134990C0221202904611274A49887CCA7C12021E
S11349A002434949487C897C090201438A4205D172
S11349B04022404610438046664608E06646023E72
S11349C00237FFB2327061460139120A0A703E4A58
S11349D0127C032A2DD1311C08390637FFB23A4A1A
S11349E09246D07C157D2D020543507D000405437D
S11349F0907D00060543D07D127E1202104381464D
S1134A005046407E00044A46024394465046827E05
S1134A101206604610430A1CB446157006062D0A99
S1134A203543000A01326245F7D1284A4046024321
S1134A300CE0B11E2448C57C027D12022A430A7090
S1134A40013E120A3270224A404602431E4D6E7CD9
S1134A50A87C000230438D1E28704D1E000A287069
S1134A601C4DE87D461CEE75CD1E2870481F027053
S1134A70081F120A027006390F7059740A0A9A74D0
S1134A800A0CDA74090E1975237860780002184349
S1134A90A3781B041843E3781B0618430121002262
S1134AA00D4B9847002803D101220C4B1A7002E0E9
S1134AB0201C0B4B98471CBC90469946A246F0BD5F
S1134AC0719E00001815002030130020010C000016
S1134AD001080000001300203DBA00006513002007
S1134AE0859E000030B583B0354B9847354B1B7815
S1134AF0012B63D9344B1B7C022B04D1334B009321
S1134B00334B019305E0032B58D1324B0093304BC8
S1134B10019331486946314B9847002802D1304B04
S1134B2098474BE00378447824021C4383781B04A1
S1134B301C43C3781B061C43627CA37C1B021343E7
S1134B40E27C12041343227D120613431E4A557C51
S1134B50927C1202597909021B792A430B439A4227
S1134B6002D01F4B984729E0012323726070030A87
S1134B70A370030CE370000E207117486946174BAD
S1134B80984700280DD0627CA37C1B021343E27C6F
S1134B9012041343227D12061343597810220A4348
S1134BA05A70201C012100220E4B9847002803D183
S1134BB001220D4B1A7001E00023237203B030BDB3
S1134BC0859E00006413002030130020A9450000D6
S1134BD0431300204945000094120020D5A0000092
S1134BE0DD4800003DBA00006513002070B5061CC6
S1134BF0049D0078747824020443B07800040443CC
S1134C00F07800060443162020706170A270E370EF
S1134C101B0A2371022A19D100236371A371E37162
S1134C2023726372A372E37223732A786B781B0274
S1134C30134363711A0AA2710022E2711B0E2372DC
S1134C4000236372A372E372237321E02B786A78E2
S1134C5012021A43AB781B041A43EB781B061A435F
S1134C6029796B791B020B43A97909040B43E97970
S1134C7009060B436271110AA171110CE171120E44
S1134C80227263721A0AA2721A0CE2721B0E237346
S1134C900248311C024B984770BDC046681300207F
S1134CA041A00000F0B587B0061C037845782D02BA
S1134CB01D4383781B041D43C3781B061D4302ACAC
S1134CC0201C291C0E227E4B984763887D4A917CC8
S1134CD0D27C12020A43934208D002AA527803A952
S1134CE00091301CE821784CA047E7E06E70330A4D
S1134CF0AB70330CEB70330E2B7103232B709822A3
S1134D00AB5402AB1A7B9923EA546E4B1A785C7845
S1134D10240214439A7812041443DA7812061443D2
S1134D2019795A7912020A43997909040A43DB79F9
S1134D301B061A432B1C9033281C98301C70110638
S1134D40240A0C43120A01338342F7D102AB5B7885
S1134D50022B09D12C1C8E34039B8E22AB541B0ACC
S1134D608F22AB5413210FE02C1C88340399049A2E
S1134D70231C2F1C903719701006090A0143120ACC
S1134D800133BB42F7D119214E4A907CD37C1B02DC
S1134D900343A21E1370621E1B0A13704B4AD37D79
S1134DA0581CD075E21E137002AB5A789202484B1D
S1134DB01A43631F63201870231F120A1A70063CDB
S1134DC021706C74230AAB74230CEB74240E2C75C1
S1134DD000232B723F4B1B78023BDBB2012B47D8DD
S1134DE002AB5B7B002B43D002AB5A78022A06D17C
S1134DF0039B04994B2B20D100291ED12FE0032AB9
S1134E002DD10398049B9C46304B1C785978090299
S1134E1021439C7824042143DC78240621431F7910
S1134E205C7924023C439F793F043C43DB791B06B5
S1134E301C43884201D1A44511D02748311C274B7B
S1134E409847224B1A7A5B7AAA71EB71244B187833
S1134E50244B9847002831D1234B98472EE002ABCE
S1134E605B8803A90091301CE821174CA04725E07A
S1134E701E4B98473378707800021843B3781B04AC
S1134E801843F3781B0618430E4B597F0F394B1EFA
S1134E90994102310122164B9847002803D101227F
S1134EA0144B1A700AE002AB5A785B8803A900918C
S1134EB0301CE121044CA0470F4B984707B0F0BDCC
S1134EC081CF000018150020ED4B000000130020D6
S1134ED063C0FFFF641300209412002041A000006F
S1134EE0E8130020DD9D0000A9670000696E000042
S1134EF03DBA000065130020096E000070B5011C66
S1134F00027843781B021343827812041343C27855
S1134F101206134315221A701B4AD07C157D2D02EC
S1134F200543507D00040543907D00060543D47D70
S1134F30107E00022043547E24042043947E2406E1
S1134F40204300245D702E0A9E702E0CDE702D0E00
S1134F501D715871050A9D71050CDD71000E1872E2
S1134F602220125C5A720948094B9847094B1C705D
S1134F705C709C70DC701C715C719C71DC71012232
S1134F8052429A72DA7270BD301300206813002006
S1134F9041A0000000130020F0B587B003784578E5
S1134FA02D021D4383781B041D43C3781B061D4338
S1134FB000220023049205936B7CAC7C24021C43E6
S1134FC0EB7C1B041C432B7D1B061C43A27812079D
S1134FD0920F931EDBB2012B0BD80023E518AE7998
S1134FE002AD5E550133082BF8D1029D039E049552
S1134FF005964C4B1B78032B16D1022A0AD14A4A38
S1135000947CD37C1B02234304AA00920222474CC3
S1135010A04784E0444CA57CE37C1B022B4304ACF6
S11350200094424CA0477AE0022B5BD1022A0CD1B7
S11350303F4B9E7ADF7A3F02E3791B02A5793C1C41
S113504034432B439C4243D124E0032A40D1002320
S1135050E518AE7902AD5E550133082BF8D1039FF4
S1135060334B1D785C7824022C439D782D042C430B
S1135070DD782D062C431E795D792D0235439E790A
S113508036043543DB791B061D43029EB4421FD10F
S1135090BD421DD1244B1A7C5B7C1B02134302339B
S11350A09BB2012B09D8204A947CD37C1B02234356
S11350B0009203221D4CA04731E01B4A947CD37C10
S11350C01B022343103200920222184CA04726E010
S11350D0154CA57CE37C1B022B4304AC0094134CBD
S11350E0A0471CE0104B1A7C5B7C1B021343023369
S11350F09BB2012B09D80C4A947CD37C1B0223431A
S113510000920322094CA04709E0074A947CD37C0F
S11351101B022343103200920222044CA04707B022
S1135120F0BDC0466413002018150020ED4B0000AC
S11351300013002008B5027843781B0213438278D9
S113514012041343C278120613431B78232B08D886
S11351509B00044A9B58002B01D0984701E0024B66
S1135160984708BD74EC0000859E0000F0B55F46CA
S113517056464D464446F0B403071B0F9846DAB230
S11351809146C006C00F8446C5B2544B1E78002019
S1135190062E00D99BE0524B5B7F9A46032B0CD81A
S11351A0504B1A784C46121B4F4B5746DB5D9A42C4
S11351B000DC8CE0002E07D118E04A4B1B78013349
S11351C09B1A002BF6DC7FE0484B1C1C0C34721E2F
S11351D0D2B2500082189200A4181A888A4202D1CE
S11351E09A79AA4272D00C33A342F6D1EFF3108716
S11351F07A427A41934672B6BFF35F8F00223C4BEA
S11352001A707200921992003A4B9A189180131CEA
S113521044465472334800784F46C01BC0B2441C05
S1135220147262469A720422DA725346082B07D922
S113523073009B199B002F4AD3180722DA800CE0D5
S113524073009B199B0009225446121B01249440AD
S1135250221C0532274CE318DA80224B1870731C89
S1135260DBB21E4A1370062B23D8224C00265A00A8
S1135270D2189200A21892888A4216D15A00D218E3
S113528092001C4FBA18927AAA420ED15A00D7182B
S1135290BF00B846174FB8440827B8444746FE70C5
S11352A0D218920013488218D6800133DBB2072B40
S11352B0DDD101205A46002A09D001220C4B1A7074
S11352C0BFF35F8F62B602E0002000E000203CBC28
S11352D090469946A246AB46F0BDC046B8020020AF
S11352E018150020C312002004ED000098130020BC
S11352F0080000209413002070B5041C037A002BCE
S113530015D00B4E0B4D201C0021B047027843787A
S11353101B021343827812041343C2781206134308
S11353205A79E6210023A847237A002BEBD170BDDC
S1135330C5A00000CD630000F0B55F4656464D465B
S11353404446F0B48BB0049203071B0F9846C00682
S1135350C30F6A461372DCB2A4466C4B1C78002C53
S113536000D1C8E06A4E00251023EFB2B946281CCC
S1135370371C32888A4200D0B3E0B279624500D04B
S1135380AFE07279424500D0ABE092464A46EFF373
S1135390108677427741079772B6BFF35F8F002775
S11353A05C4E377047003F18BF005B4EBF590697ED
S11353B0661E0596B5423EDA574E55460895984600
S11353C009948B46471C01977F00B946019B191C21
S11353D04944890071188B88440000942418A4005F
S11353E03419A38008256D18AC46AF78A7726D7880
S11353F0657267467F784546ED1B2572C988E18052
S11354000427E77201990F1C4F44BF00B959009C4F
S113541023189B009951F018437A4546EB1ADBB2E6
S113542098460132D2B2101C059FBA42CADB0899D1
S11354308A46099C594646003718BF00364DA8468F
S1135440474400257D60BD6030188000069F4646B5
S11354508751013C2D480470013B30480370062AF3
S113546019D84546341C8C46531C5800C01880007B
S11354702818C07A002809D05000801880005E00E7
S1135480F3189B002018E318C2CBC2C00132D2B279
S1135490072AE9D16146049A002A10D01E4B4C22F7
S11354A0995252226C46247A9C54512255469D545A
S11354B000215022995404215322995403E00021DD
S11354C05323154AD154079E002E05D00122114BB7
S11354D01A70BFF35F8F62B60698114B984701208C
S11354E00CE07A799B1ADBB201350C36EAB2A2429F
S11354F000D23AE701E0002000E000200BB03CBC01
S113550090469946A246AB46F0BDC046B80200207C
S1135510981300200800002094130020C3120020D8
S1135520F952000038B5051C0C1C9C200C4B984704
S1135530031C0178427812020A43817809040A4361
S1135540C17809060A435470240A94703F210D401F
S1135550D570192111700348191C034B984738BDA5
S1135560719E00006813002041A0000010B5031CC8
S113557004784078000220439C7824042043DC789B
S11355802406204318240470817042700248191CB8
S1135590024B984710BDC0466813002041A000008C
S11355A0F0B54F464646C0B483B0041C0378457832
S11355B02D021D4383781B041D43C3781B061D4322
S11355C001A8291C04228E4B98476B78A9780902FC
S11355D019438C4B1A7C5E7C360216438A4B9E42DE
S11355E00BD88A4B9A7AD87A00021043864A9042A2
S11355F00AD9874B1B78032B06D001ABDA78201C21
S1135600EC21844B9847F5E0804B5B7C012B24D143
S113561001ABDF783F073F0FFBB2002B1DD07C4A64
S11356201278012A00D0E2E08E4216D17A4A12782A
S1135630022A12D101AAD278900642D401AAD278C1
S1135640D206D20FD100754841180979002904D037
S1135650D20082185279934233D001ABDA78201CFD
S1135660E8216C4B9847C5E001ABDB789A0613D56B
S113567001ABD8786A4B9847002806D001ABDA789A
S1135680201C0021634B9847B4E001ABDA78201C5E
S1135690EB21604B9847ADE001ABD8780122614B18
S11356A09847002806D001ABDA78201C0021594B1A
S11356B098479FE001ABDA78201CEB21554B9847C3
S11356C098E0594B9847227863781B021343A278D9
S11356D012041343E2781206134309221A705C7011
S11356E0210A9970210CD970210E197198215A54EC
S11356F06A46D179992299544249087C4A7C12021B
S1135700024396201A54120A97201A543F4881469D
S1135710827AC07A0002024390469422944642461A
S113572060461A544046000A95229854887CC97CE5
S11357300902014392201954090A93201954484636
S1135740C17D481C4A46D0759122995463218F2209
S113575099548821902299540D218E2299541A1C0F
S11357608E325A74110A9974110CD974120E1A7566
S1135770281C032101222D4B9847011E2AD101AB7D
S1135780DA78D206D20F214B997ADB7A1B020B43CB
S11357909E4201D102231A4301ABDB7898060DD453
S11357A0D2001E4B9A18002353711371D37101ABAD
S11357B0DA78201C0021174B98471BE0174BD200C6
S11357C0D4509B180122DA71042199715F71184B2E
S11357D01A700FE001ABDA78201C0E4B984709E0F1
S11357E001ABDA78201CE8210A4B984702E0032A2F
S11357F0F6D139E703B00CBC90469946F0BDC046DB
S113580081CF000018150020FDFF000000130020C8
S1135810641300206D550000C21200207413002090
S11358206D51000039530000696E00003DBA00005C
S11358306513002010B5041C027843781B0213433F
S1135840827812041343C27812061343164AD07C9A
S1135850117D090201435870080A98702220125CD5
S1135860DA7019221A70DA7890060DD5101C0F4BD5
S11358709847002804D00E48211C0E4B984711E08D
S1135880201C0D4B98470DE0D87800220B4B98470D
S1135890002804D00648211C064B984702E0201C2F
S11358A0054B984710BDC046301300206D510000D1
S11358B06813002041A00000859E000039530000B9
S11358C0F8B55F4656464D464446F0B43C4B1B780B
S11358D0002B6FD000243B4D2E1C2F1C63001B1982
S11358E09B00EB18DB88002B5ED0013B9BB2610070
S11358F0091989007118CB80002B55D1630019193F
S11359008900791888888146897A8A461B199B0000
S1135910FB185B7A0F221A4093460F2340469843A4
S1135920104301230B401B011022904318432023F2
S113593098433F231840804649460122224B98470A
S1135940002831D09C20214B9847011E32D0027888
S113595043781B021343827812041343C27812065D
S113596013434A465A704846020A9A70DA780F205E
S1135970824394460120524610400001814660460D
S11359805A461043834610205A46824348460243EF
S1135990202082433F200240DA7019221A700C48FA
S11359A00C4B9847013CE4B20134E4B2044B1B783D
S11359B0A34293D83CBC90469946A246AB46F8BD58
S11359C0B80200209413002039530000719E000097
S11359D06813002041A00000F0B55F4656464D46CE
S11359E04446F0B483B0EFF310835A425A419146CF
S11359F072B6BFF35F8F0022274B1A700026274B25
S1135A00002400250727BC4601229046191CDA7A97
S1135A10002A1ED0471E01975A7A12011F7A3A4370
S1135A20019F3A70821E9F883F0A177003389A8834
S1135A3002700335EDB26400E4B29A7A002A02D00F
S1135A4042461443E4B20136CA7A013ACA7267463E
S1135A503E400C33124A9342D8D1311E03DD013843
S1135A6004700135EDB20F4A527CD2017F230B4002
S1135A701343013803704B46002B05D00122064B1B
S1135A801A70BFF35F8F62B6281C03B03CBC90460B
S1135A909946A246AB46F0BD0800002094130020AE
S1135AA0E813002000130020F0B55F4656464D462B
S1135AB04446F0B485B08A46141C0021002800D165
S1135AC0A7E00138C0B20130430018181018039041
S1135AD00026534A91466B461970012355463541B9
S1135AE01D40617809022278114320226F463F78D5
S1135AF03A432B401B01102082431A43A3781B090D
S1135B009C46D8B202900F239A4302436B461A7004
S1135B104846077C437C1B023B438B4207D0414BE6
S1135B209F7ADB7A1B023B438B426CD106E03D48F3
S1135B30877AC07A00023843834201D102231D438D
S1135B40A846EB00384FFB18DB79012B20D1A37852
S1135B501B07190F002B08D1ED0079190020C8711B
S1135B60E859E221314B98474DE0281CEB002E4DBB
S1135B70EB185B79029D9D4245D12B4BC0001D184B
S1135B8029710221E971C0580021284B98473AE055
S1135B90002B11D1A3781B072DD0ED00224B5D19EA
S1135BA060466871A3781B071B0F2B71101C204BD8
S1135BB098470223EB7126E0022B1CD1A3781B0724
S1135BC019D1EB001848C018804663464371A37886
S1135BD01B071B0F03712023101C98436F4638705A
S1135BE0134B984700234046C371002D0BD1114835
S1135BF0114B984707E04146CD00A3781B071B0FC4
S1135C00094F7D192B7103340136039DAC4200D03A
S1135C1063E705B03CBC90469946A246AB46F0BD4E
S1135C201815002000130020741300206D55000087
S1135C3025550000BC020020F9520000F8B5064CBE
S1135C40064D271C3F37064E201CB0472C600934F4
S1135C500C35BC42F8D1F8BD780200209413002022
S1135C6029A0000010B500240A4B1C700A4800212A
S1135C7054220A4B98470A4B1C700A4B1C605C6008
S1135C809C60DC601C615C619C61DC61064B984734
S1135C9010BDC046B80200209413002005D00000B7
S1135CA0C8020020741300203D5C000038B5051CB8
S1135CB000211B4B9847002831D0027844782402F5
S1135CC01443827812041443C27812061443607099
S1135CD0020AA270020CE270030E237165722B0A91
S1135CE0A3722B0CE3722D0E2573201C01210122BB
